{
  "_format": "hh-sol-artifact-1",
  "contractName": "KeepItSafe",
  "sourceName": "contracts/KeepItSafe.sol",
  "address": "0xD75242F5739F63145A19fE15c6663E3e66608A7F",
  "abi": [
    {
      "inputs": [],
      "stateMutability": "nonpayable",
      "type": "constructor"
    },
    {
      "inputs": [
        {
          "internalType": "address",
          "name": "sender",
          "type": "address"
        },
        {
          "internalType": "uint256",
          "name": "tokenId",
          "type": "uint256"
        },
        {
          "internalType": "address",
          "name": "owner",
          "type": "address"
        }
      ],
      "name": "ERC721IncorrectOwner",
      "type": "error"
    },
    {
      "inputs": [
        {
          "internalType": "address",
          "name": "operator",
          "type": "address"
        },
        {
          "internalType": "uint256",
          "name": "tokenId",
          "type": "uint256"
        }
      ],
      "name": "ERC721InsufficientApproval",
      "type": "error"
    },
    {
      "inputs": [
        {
          "internalType": "address",
          "name": "approver",
          "type": "address"
        }
      ],
      "name": "ERC721InvalidApprover",
      "type": "error"
    },
    {
      "inputs": [
        {
          "internalType": "address",
          "name": "operator",
          "type": "address"
        }
      ],
      "name": "ERC721InvalidOperator",
      "type": "error"
    },
    {
      "inputs": [
        {
          "internalType": "address",
          "name": "owner",
          "type": "address"
        }
      ],
      "name": "ERC721InvalidOwner",
      "type": "error"
    },
    {
      "inputs": [
        {
          "internalType": "address",
          "name": "receiver",
          "type": "address"
        }
      ],
      "name": "ERC721InvalidReceiver",
      "type": "error"
    },
    {
      "inputs": [
        {
          "internalType": "address",
          "name": "sender",
          "type": "address"
        }
      ],
      "name": "ERC721InvalidSender",
      "type": "error"
    },
    {
      "inputs": [
        {
          "internalType": "uint256",
          "name": "tokenId",
          "type": "uint256"
        }
      ],
      "name": "ERC721NonexistentToken",
      "type": "error"
    },
    {
      "inputs": [],
      "name": "KeepItSafe__DomainAlreadyExists",
      "type": "error"
    },
    {
      "inputs": [],
      "name": "KeepItSafe__InstituteAlreadyExists",
      "type": "error"
    },
    {
      "inputs": [],
      "name": "KeepItSafe__InstituteCannotAddStudents",
      "type": "error"
    },
    {
      "inputs": [],
      "name": "KeepItSafe__InstituteDoesNotExists",
      "type": "error"
    },
    {
      "inputs": [],
      "name": "KeepItSafe__OnlyForInstituteRole",
      "type": "error"
    },
    {
      "inputs": [],
      "name": "KeepItSafe__OnlyForStudentRole",
      "type": "error"
    },
    {
      "inputs": [],
      "name": "KeepItSafe__StudentAlreadyExists",
      "type": "error"
    },
    {
      "inputs": [],
      "name": "KeepItSafe__StudentDoesNotExists",
      "type": "error"
    },
    {
      "inputs": [],
      "name": "XRC4907Storage__TokenIdLocked",
      "type": "error"
    },
    {
      "anonymous": false,
      "inputs": [
        {
          "indexed": true,
          "internalType": "address",
          "name": "owner",
          "type": "address"
        },
        {
          "indexed": true,
          "internalType": "address",
          "name": "approved",
          "type": "address"
        },
        {
          "indexed": true,
          "internalType": "uint256",
          "name": "tokenId",
          "type": "uint256"
        }
      ],
      "name": "Approval",
      "type": "event"
    },
    {
      "anonymous": false,
      "inputs": [
        {
          "indexed": true,
          "internalType": "address",
          "name": "owner",
          "type": "address"
        },
        {
          "indexed": true,
          "internalType": "address",
          "name": "operator",
          "type": "address"
        },
        {
          "indexed": false,
          "internalType": "bool",
          "name": "approved",
          "type": "bool"
        }
      ],
      "name": "ApprovalForAll",
      "type": "event"
    },
    {
      "anonymous": false,
      "inputs": [
        {
          "indexed": false,
          "internalType": "uint256",
          "name": "_fromTokenId",
          "type": "uint256"
        },
        {
          "indexed": false,
          "internalType": "uint256",
          "name": "_toTokenId",
          "type": "uint256"
        }
      ],
      "name": "BatchMetadataUpdate",
      "type": "event"
    },
    {
      "anonymous": false,
      "inputs": [
        {
          "indexed": false,
          "internalType": "uint256",
          "name": "_tokenId",
          "type": "uint256"
        }
      ],
      "name": "MetadataUpdate",
      "type": "event"
    },
    {
      "anonymous": false,
      "inputs": [
        {
          "indexed": true,
          "internalType": "address",
          "name": "from",
          "type": "address"
        },
        {
          "indexed": true,
          "internalType": "address",
          "name": "to",
          "type": "address"
        },
        {
          "indexed": true,
          "internalType": "uint256",
          "name": "tokenId",
          "type": "uint256"
        }
      ],
      "name": "Transfer",
      "type": "event"
    },
    {
      "anonymous": false,
      "inputs": [
        {
          "indexed": true,
          "internalType": "uint256",
          "name": "tokenId",
          "type": "uint256"
        },
        {
          "indexed": true,
          "internalType": "address",
          "name": "user",
          "type": "address"
        },
        {
          "indexed": false,
          "internalType": "uint64",
          "name": "expires",
          "type": "uint64"
        }
      ],
      "name": "UpdateUser",
      "type": "event"
    },
    {
      "inputs": [
        {
          "internalType": "string",
          "name": "_instituteName",
          "type": "string"
        },
        {
          "internalType": "string",
          "name": "_instituteLocation",
          "type": "string"
        },
        {
          "internalType": "string",
          "name": "_instituteDomain",
          "type": "string"
        }
      ],
      "name": "addInstitute",
      "outputs": [],
      "stateMutability": "nonpayable",
      "type": "function"
    },
    {
      "inputs": [
        {
          "internalType": "string",
          "name": "_studentName",
          "type": "string"
        },
        {
          "internalType": "address",
          "name": "_instituteAddress",
          "type": "address"
        },
        {
          "internalType": "string",
          "name": "_instituteDomain",
          "type": "string"
        }
      ],
      "name": "addStudent",
      "outputs": [],
      "stateMutability": "nonpayable",
      "type": "function"
    },
    {
      "inputs": [
        {
          "internalType": "address",
          "name": "to",
          "type": "address"
        },
        {
          "internalType": "uint256",
          "name": "tokenId",
          "type": "uint256"
        }
      ],
      "name": "approve",
      "outputs": [],
      "stateMutability": "nonpayable",
      "type": "function"
    },
    {
      "inputs": [
        {
          "internalType": "address",
          "name": "_studentAddress",
          "type": "address"
        },
        {
          "internalType": "string",
          "name": "_docType",
          "type": "string"
        },
        {
          "internalType": "string",
          "name": "_ipfsHash",
          "type": "string"
        },
        {
          "internalType": "uint64",
          "name": "_expiresIn",
          "type": "uint64"
        }
      ],
      "name": "approveDocumentRequest",
      "outputs": [],
      "stateMutability": "nonpayable",
      "type": "function"
    },
    {
      "inputs": [
        {
          "internalType": "address",
          "name": "owner",
          "type": "address"
        }
      ],
      "name": "balanceOf",
      "outputs": [
        {
          "internalType": "uint256",
          "name": "",
          "type": "uint256"
        }
      ],
      "stateMutability": "view",
      "type": "function"
    },
    {
      "inputs": [],
      "name": "getAllRequestsForInstitutes",
      "outputs": [
        {
          "components": [
            {
              "internalType": "address",
              "name": "student",
              "type": "address"
            },
            {
              "internalType": "string",
              "name": "docType",
              "type": "string"
            },
            {
              "internalType": "bool",
              "name": "exists",
              "type": "bool"
            }
          ],
          "internalType": "struct KeepItSafe.DocumentRequest[]",
          "name": "",
          "type": "tuple[]"
        }
      ],
      "stateMutability": "view",
      "type": "function"
    },
    {
      "inputs": [],
      "name": "getAllStudentsRequests",
      "outputs": [
        {
          "components": [
            {
              "internalType": "address",
              "name": "student",
              "type": "address"
            },
            {
              "internalType": "string",
              "name": "docType",
              "type": "string"
            },
            {
              "internalType": "bool",
              "name": "exists",
              "type": "bool"
            }
          ],
          "internalType": "struct KeepItSafe.DocumentRequest[]",
          "name": "",
          "type": "tuple[]"
        }
      ],
      "stateMutability": "view",
      "type": "function"
    },
    {
      "inputs": [
        {
          "internalType": "uint256",
          "name": "tokenId",
          "type": "uint256"
        }
      ],
      "name": "getApproved",
      "outputs": [
        {
          "internalType": "address",
          "name": "",
          "type": "address"
        }
      ],
      "stateMutability": "view",
      "type": "function"
    },
    {
      "inputs": [
        {
          "internalType": "address",
          "name": "_student",
          "type": "address"
        }
      ],
      "name": "getDocsForAStudent",
      "outputs": [
        {
          "components": [
            {
              "internalType": "string",
              "name": "docType",
              "type": "string"
            },
            {
              "internalType": "string",
              "name": "ipfsHash",
              "type": "string"
            },
            {
              "internalType": "uint256",
              "name": "expiresIn",
              "type": "uint256"
            },
            {
              "internalType": "uint256",
              "name": "tokenId",
              "type": "uint256"
            },
            {
              "internalType": "address",
              "name": "user",
              "type": "address"
            }
          ],
          "internalType": "struct XRC4907Storage.StudentDocs[]",
          "name": "",
          "type": "tuple[]"
        }
      ],
      "stateMutability": "view",
      "type": "function"
    },
    {
      "inputs": [
        {
          "internalType": "address",
          "name": "_instituteAddress",
          "type": "address"
        }
      ],
      "name": "getInstituteDetails",
      "outputs": [
        {
          "components": [
            {
              "internalType": "string",
              "name": "instituteName",
              "type": "string"
            },
            {
              "internalType": "string",
              "name": "instituteLocation",
              "type": "string"
            },
            {
              "internalType": "string",
              "name": "instituteDomain",
              "type": "string"
            },
            {
              "internalType": "bool",
              "name": "registered",
              "type": "bool"
            }
          ],
          "internalType": "struct KeepItSafe.Institute",
          "name": "",
          "type": "tuple"
        }
      ],
      "stateMutability": "view",
      "type": "function"
    },
    {
      "inputs": [
        {
          "internalType": "address",
          "name": "_studentAddress",
          "type": "address"
        }
      ],
      "name": "getStudentDetails",
      "outputs": [
        {
          "components": [
            {
              "internalType": "string",
              "name": "studentName",
              "type": "string"
            },
            {
              "internalType": "address",
              "name": "institueAddress",
              "type": "address"
            },
            {
              "internalType": "string",
              "name": "instituteDomain",
              "type": "string"
            },
            {
              "internalType": "bool",
              "name": "registered",
              "type": "bool"
            }
          ],
          "internalType": "struct KeepItSafe.Student",
          "name": "",
          "type": "tuple"
        }
      ],
      "stateMutability": "view",
      "type": "function"
    },
    {
      "inputs": [
        {
          "internalType": "uint256",
          "name": "_tokenId",
          "type": "uint256"
        }
      ],
      "name": "getStudentDocById",
      "outputs": [
        {
          "components": [
            {
              "internalType": "string",
              "name": "docType",
              "type": "string"
            },
            {
              "internalType": "string",
              "name": "ipfsHash",
              "type": "string"
            },
            {
              "internalType": "uint256",
              "name": "expiresIn",
              "type": "uint256"
            },
            {
              "internalType": "uint256",
              "name": "tokenId",
              "type": "uint256"
            },
            {
              "internalType": "address",
              "name": "user",
              "type": "address"
            }
          ],
          "internalType": "struct XRC4907Storage.StudentDocs",
          "name": "",
          "type": "tuple"
        }
      ],
      "stateMutability": "view",
      "type": "function"
    },
    {
      "inputs": [],
      "name": "getStudentDocs",
      "outputs": [
        {
          "components": [
            {
              "internalType": "string",
              "name": "docType",
              "type": "string"
            },
            {
              "internalType": "string",
              "name": "ipfsHash",
              "type": "string"
            },
            {
              "internalType": "uint256",
              "name": "expiresIn",
              "type": "uint256"
            },
            {
              "internalType": "uint256",
              "name": "tokenId",
              "type": "uint256"
            },
            {
              "internalType": "address",
              "name": "user",
              "type": "address"
            }
          ],
          "internalType": "struct XRC4907Storage.StudentDocs[]",
          "name": "",
          "type": "tuple[]"
        }
      ],
      "stateMutability": "view",
      "type": "function"
    },
    {
      "inputs": [],
      "name": "getYourRole",
      "outputs": [
        {
          "internalType": "enum KeepItSafe.Roles",
          "name": "",
          "type": "uint8"
        }
      ],
      "stateMutability": "view",
      "type": "function"
    },
    {
      "inputs": [
        {
          "internalType": "address",
          "name": "_student",
          "type": "address"
        }
      ],
      "name": "hasDocExpired",
      "outputs": [
        {
          "internalType": "bool",
          "name": "",
          "type": "bool"
        }
      ],
      "stateMutability": "nonpayable",
      "type": "function"
    },
    {
      "inputs": [
        {
          "internalType": "address",
          "name": "owner",
          "type": "address"
        },
        {
          "internalType": "address",
          "name": "operator",
          "type": "address"
        }
      ],
      "name": "isApprovedForAll",
      "outputs": [
        {
          "internalType": "bool",
          "name": "",
          "type": "bool"
        }
      ],
      "stateMutability": "view",
      "type": "function"
    },
    {
      "inputs": [
        {
          "internalType": "address",
          "name": "_owner",
          "type": "address"
        },
        {
          "internalType": "address",
          "name": "_to",
          "type": "address"
        },
        {
          "internalType": "string",
          "name": "_docType",
          "type": "string"
        },
        {
          "internalType": "string",
          "name": "_ipfsHash",
          "type": "string"
        },
        {
          "internalType": "uint64",
          "name": "_expiresIn",
          "type": "uint64"
        }
      ],
      "name": "mint",
      "outputs": [],
      "stateMutability": "nonpayable",
      "type": "function"
    },
    {
      "inputs": [],
      "name": "name",
      "outputs": [
        {
          "internalType": "string",
          "name": "",
          "type": "string"
        }
      ],
      "stateMutability": "view",
      "type": "function"
    },
    {
      "inputs": [
        {
          "internalType": "uint256",
          "name": "tokenId",
          "type": "uint256"
        }
      ],
      "name": "ownerOf",
      "outputs": [
        {
          "internalType": "address",
          "name": "",
          "type": "address"
        }
      ],
      "stateMutability": "view",
      "type": "function"
    },
    {
      "inputs": [
        {
          "internalType": "address",
          "name": "_instituteAddress",
          "type": "address"
        },
        {
          "internalType": "string",
          "name": "_docType",
          "type": "string"
        }
      ],
      "name": "requestDocument",
      "outputs": [],
      "stateMutability": "nonpayable",
      "type": "function"
    },
    {
      "inputs": [
        {
          "internalType": "address",
          "name": "from",
          "type": "address"
        },
        {
          "internalType": "address",
          "name": "to",
          "type": "address"
        },
        {
          "internalType": "uint256",
          "name": "tokenId",
          "type": "uint256"
        }
      ],
      "name": "safeTransferFrom",
      "outputs": [],
      "stateMutability": "nonpayable",
      "type": "function"
    },
    {
      "inputs": [
        {
          "internalType": "address",
          "name": "from",
          "type": "address"
        },
        {
          "internalType": "address",
          "name": "to",
          "type": "address"
        },
        {
          "internalType": "uint256",
          "name": "tokenId",
          "type": "uint256"
        },
        {
          "internalType": "bytes",
          "name": "data",
          "type": "bytes"
        }
      ],
      "name": "safeTransferFrom",
      "outputs": [],
      "stateMutability": "nonpayable",
      "type": "function"
    },
    {
      "inputs": [
        {
          "internalType": "address",
          "name": "operator",
          "type": "address"
        },
        {
          "internalType": "bool",
          "name": "approved",
          "type": "bool"
        }
      ],
      "name": "setApprovalForAll",
      "outputs": [],
      "stateMutability": "nonpayable",
      "type": "function"
    },
    {
      "inputs": [
        {
          "internalType": "uint256",
          "name": "tokenId",
          "type": "uint256"
        },
        {
          "internalType": "address",
          "name": "_user",
          "type": "address"
        },
        {
          "internalType": "uint64",
          "name": "expires",
          "type": "uint64"
        }
      ],
      "name": "setUser",
      "outputs": [],
      "stateMutability": "nonpayable",
      "type": "function"
    },
    {
      "inputs": [
        {
          "internalType": "bytes4",
          "name": "interfaceId",
          "type": "bytes4"
        }
      ],
      "name": "supportsInterface",
      "outputs": [
        {
          "internalType": "bool",
          "name": "",
          "type": "bool"
        }
      ],
      "stateMutability": "view",
      "type": "function"
    },
    {
      "inputs": [],
      "name": "symbol",
      "outputs": [
        {
          "internalType": "string",
          "name": "",
          "type": "string"
        }
      ],
      "stateMutability": "view",
      "type": "function"
    },
    {
      "inputs": [],
      "name": "time",
      "outputs": [
        {
          "internalType": "uint256",
          "name": "",
          "type": "uint256"
        }
      ],
      "stateMutability": "view",
      "type": "function"
    },
    {
      "inputs": [],
      "name": "tokenIdCounter",
      "outputs": [
        {
          "internalType": "uint256",
          "name": "",
          "type": "uint256"
        }
      ],
      "stateMutability": "view",
      "type": "function"
    },
    {
      "inputs": [
        {
          "internalType": "uint256",
          "name": "tokenId",
          "type": "uint256"
        }
      ],
      "name": "tokenURI",
      "outputs": [
        {
          "internalType": "string",
          "name": "",
          "type": "string"
        }
      ],
      "stateMutability": "view",
      "type": "function"
    },
    {
      "inputs": [
        {
          "internalType": "address",
          "name": "from",
          "type": "address"
        },
        {
          "internalType": "address",
          "name": "to",
          "type": "address"
        },
        {
          "internalType": "uint256",
          "name": "tokenId",
          "type": "uint256"
        }
      ],
      "name": "transferFrom",
      "outputs": [],
      "stateMutability": "nonpayable",
      "type": "function"
    },
    {
      "inputs": [
        {
          "internalType": "uint256",
          "name": "tokenId",
          "type": "uint256"
        }
      ],
      "name": "userExpires",
      "outputs": [
        {
          "internalType": "uint256",
          "name": "",
          "type": "uint256"
        }
      ],
      "stateMutability": "view",
      "type": "function"
    },
    {
      "inputs": [
        {
          "internalType": "uint256",
          "name": "tokenId",
          "type": "uint256"
        }
      ],
      "name": "userOf",
      "outputs": [
        {
          "internalType": "address",
          "name": "",
          "type": "address"
        }
      ],
      "stateMutability": "view",
      "type": "function"
    }
  ],
  "bytecode": "0x60806040523480156200001157600080fd5b506040518060400160405280600a81526020017f4b656570497453616665000000000000000000000000000000000000000000008152506040518060400160405280600381526020017f4b6953000000000000000000000000000000000000000000000000000000000081525081600090816200008f91906200032c565b508060019081620000a191906200032c565b505050600160068190555062000413565b600081519050919050565b7f4e487b7100000000000000000000000000000000000000000000000000000000600052604160045260246000fd5b7f4e487b7100000000000000000000000000000000000000000000000000000000600052602260045260246000fd5b600060028204905060018216806200013457607f821691505b6020821081036200014a5762000149620000ec565b5b50919050565b60008190508160005260206000209050919050565b60006020601f8301049050919050565b600082821b905092915050565b600060088302620001b47fffffffffffffffffffffffffffffffffffffffffffffffffffffffffffffffff8262000175565b620001c0868362000175565b95508019841693508086168417925050509392505050565b6000819050919050565b6000819050919050565b60006200020d620002076200020184620001d8565b620001e2565b620001d8565b9050919050565b6000819050919050565b6200022983620001ec565b62000241620002388262000214565b84845462000182565b825550505050565b600090565b6200025862000249565b620002658184846200021e565b505050565b5b818110156200028d57620002816000826200024e565b6001810190506200026b565b5050565b601f821115620002dc57620002a68162000150565b620002b18462000165565b81016020851015620002c1578190505b620002d9620002d08562000165565b8301826200026a565b50505b505050565b600082821c905092915050565b60006200030160001984600802620002e1565b1980831691505092915050565b60006200031c8383620002ee565b9150826002028217905092915050565b6200033782620000b2565b67ffffffffffffffff811115620003535762000352620000bd565b5b6200035f82546200011b565b6200036c82828562000291565b600060209050601f831160018114620003a457600084156200038f578287015190505b6200039b85826200030e565b8655506200040b565b601f198416620003b48662000150565b60005b82811015620003de57848901518255600182019150602085019450602081019050620003b7565b86831015620003fe5784890151620003fa601f891682620002ee565b8355505b6001600288020188555050505b505050505050565b61585380620004236000396000f3fe608060405234801561001057600080fd5b50600436106101f05760003560e01c806395d89b411161010f578063d0b371bd116100a2578063e030565e11610071578063e030565e146105ef578063e985e9c51461060b578063fb2cbb881461063b578063fde82a3714610659576101f0565b8063d0b371bd14610541578063d16ce28114610571578063d2fe0448146105a1578063d4085e3b146105bf576101f0565b8063b88d4fde116100de578063b88d4fde14610495578063be569c10146104b1578063c2f1f14a146104e1578063c87b56dd14610511576101f0565b806395d89b411461042157806398bdf6f51461043f5780639fea70d51461045d578063a22cb46514610479576101f0565b806346510b8511610187578063884c607f11610156578063884c607f1461039b5780638f2fc346146103b75780638fc88c48146103d557806393c5403414610405576101f0565b806346510b85146103015780636352211e1461031f57806370a082311461034f57806376349c0d1461037f576101f0565b806316ada547116101c357806316ada5471461028f57806323b872dd146102ad5780632610e1d7146102c957806342842e0e146102e5576101f0565b806301ffc9a7146101f557806306fdde0314610225578063081812fc14610243578063095ea7b314610273575b600080fd5b61020f600480360381019061020a91906141d7565b610689565b60405161021c919061421f565b60405180910390f35b61022d610703565b60405161023a91906142ca565b60405180910390f35b61025d60048036038101906102589190614322565b610795565b60405161026a9190614390565b60405180910390f35b61028d600480360381019061028891906143d7565b6107b1565b005b6102976107c7565b6040516102a49190614426565b60405180910390f35b6102c760048036038101906102c29190614441565b6107cf565b005b6102e360048036038101906102de91906145c9565b61083d565b005b6102ff60048036038101906102fa9190614441565b610b00565b005b610309610b20565b60405161031691906147ea565b60405180910390f35b61033960048036038101906103349190614322565b6110b8565b6040516103469190614390565b60405180910390f35b6103696004803603810190610364919061480c565b6110ca565b6040516103769190614426565b60405180910390f35b61039960048036038101906103949190614839565b611184565b005b6103b560048036038101906103b09190614904565b6114d7565b005b6103bf611901565b6040516103cc9190614a2e565b60405180910390f35b6103ef60048036038101906103ea9190614322565b611955565b6040516103fc9190614426565b60405180910390f35b61041f600480360381019061041a9190614a49565b6119bb565b005b610429611c9d565b60405161043691906142ca565b60405180910390f35b610447611d2f565b6040516104549190614426565b60405180910390f35b61047760048036038101906104729190614aa5565b611d35565b005b610493600480360381019061048e9190614b70565b612026565b005b6104af60048036038101906104aa9190614c51565b61203c565b005b6104cb60048036038101906104c6919061480c565b612059565b6040516104d8919061421f565b60405180910390f35b6104fb60048036038101906104f69190614322565b61215b565b6040516105089190614390565b60405180910390f35b61052b60048036038101906105269190614322565b6121c9565b60405161053891906142ca565b60405180910390f35b61055b6004803603810190610556919061480c565b6121db565b6040516105689190614d3e565b60405180910390f35b61058b6004803603810190610586919061480c565b6123c9565b6040516105989190614eae565b60405180910390f35b6105a96126d4565b6040516105b691906147ea565b60405180910390f35b6105d960048036038101906105d4919061480c565b612a82565b6040516105e69190614f41565b60405180910390f35b61060960048036038101906106049190614f63565b612cac565b005b61062560048036038101906106209190614fb6565b612d1f565b604051610632919061421f565b60405180910390f35b610643612db3565b6040516106509190614eae565b60405180910390f35b610673600480360381019061066e9190614322565b612e6c565b6040516106809190615073565b60405180910390f35b60007fad092b5c000000000000000000000000000000000000000000000000000000007bffffffffffffffffffffffffffffffffffffffffffffffffffffffff1916827bffffffffffffffffffffffffffffffffffffffffffffffffffffffff191614806106fc57506106fb82613027565b5b9050919050565b606060008054610712906150c4565b80601f016020809104026020016040519081016040528092919081815260200182805461073e906150c4565b801561078b5780601f106107605761010080835404028352916020019161078b565b820191906000526020600020905b81548152906001019060200180831161076e57829003601f168201915b5050505050905090565b60006107a082613088565b506107aa82613110565b9050919050565b6107c382826107be61314d565b613155565b5050565b600042905090565b600115156009600083815260200190815260200160002060009054906101000a900460ff1615150361082d576040517ff528582f00000000000000000000000000000000000000000000000000000000815260040160405180910390fd5b610838838383610b00565b505050565b60011515600c60003373ffffffffffffffffffffffffffffffffffffffff1673ffffffffffffffffffffffffffffffffffffffff16815260200190815260200160002060030160009054906101000a900460ff161515036108ca576040517f084c8b4800000000000000000000000000000000000000000000000000000000815260040160405180910390fd5b600073ffffffffffffffffffffffffffffffffffffffff16600e826040516108f29190615131565b908152602001604051809103902060009054906101000a900473ffffffffffffffffffffffffffffffffffffffff1673ffffffffffffffffffffffffffffffffffffffff161461096e576040517fab1f95c700000000000000000000000000000000000000000000000000000000815260040160405180910390fd5b604051806080016040528084815260200183815260200182815260200160011515815250600c60003373ffffffffffffffffffffffffffffffffffffffff1673ffffffffffffffffffffffffffffffffffffffff16815260200190815260200160002060008201518160000190816109e691906152f4565b5060208201518160010190816109fc91906152f4565b506040820151816002019081610a1291906152f4565b5060608201518160030160006101000a81548160ff0219169083151502179055509050506001600b60003373ffffffffffffffffffffffffffffffffffffffff1673ffffffffffffffffffffffffffffffffffffffff16815260200190815260200160002060006101000a81548160ff02191690836002811115610a9957610a986149b7565b5b021790555033600e82604051610aaf9190615131565b908152602001604051809103902060006101000a81548173ffffffffffffffffffffffffffffffffffffffff021916908373ffffffffffffffffffffffffffffffffffffffff160217905550505050565b610b1b8383836040518060200160405280600081525061203c565b505050565b6060600080600090505b601060003373ffffffffffffffffffffffffffffffffffffffff1673ffffffffffffffffffffffffffffffffffffffff16815260200190815260200160002080549050811015610c5257600f6000601060003373ffffffffffffffffffffffffffffffffffffffff1673ffffffffffffffffffffffffffffffffffffffff1681526020019081526020016000208381548110610bc957610bc86153c6565b5b9060005260206000200160009054906101000a900473ffffffffffffffffffffffffffffffffffffffff1673ffffffffffffffffffffffffffffffffffffffff1673ffffffffffffffffffffffffffffffffffffffff1681526020019081526020016000208054905082610c3d9190615424565b91508080610c4a90615458565b915050610b2a565b5060008167ffffffffffffffff811115610c6f57610c6e61449e565b5b604051908082528060200260200182016040528015610ca857816020015b610c95614083565b815260200190600190039081610c8d5790505b5090506000805b601060003373ffffffffffffffffffffffffffffffffffffffff1673ffffffffffffffffffffffffffffffffffffffff16815260200190815260200160002080549050811015610ffd576000601060003373ffffffffffffffffffffffffffffffffffffffff1673ffffffffffffffffffffffffffffffffffffffff1681526020019081526020016000208281548110610d4c57610d4b6153c6565b5b9060005260206000200160009054906101000a900473ffffffffffffffffffffffffffffffffffffffff16905060005b600f60008373ffffffffffffffffffffffffffffffffffffffff1673ffffffffffffffffffffffffffffffffffffffff16815260200190815260200160002080549050811015610fe857600f60008373ffffffffffffffffffffffffffffffffffffffff1673ffffffffffffffffffffffffffffffffffffffff1681526020019081526020016000208181548110610e1757610e166153c6565b5b906000526020600020906003020160020160009054906101000a900460ff1615610fd557600f60008373ffffffffffffffffffffffffffffffffffffffff1673ffffffffffffffffffffffffffffffffffffffff1681526020019081526020016000208181548110610e8c57610e8b6153c6565b5b90600052602060002090600302016040518060600160405290816000820160009054906101000a900473ffffffffffffffffffffffffffffffffffffffff1673ffffffffffffffffffffffffffffffffffffffff1673ffffffffffffffffffffffffffffffffffffffff168152602001600182018054610f0b906150c4565b80601f0160208091040260200160405190810160405280929190818152602001828054610f37906150c4565b8015610f845780601f10610f5957610100808354040283529160200191610f84565b820191906000526020600020905b815481529060010190602001808311610f6757829003601f168201915b505050505081526020016002820160009054906101000a900460ff161515151581525050858581518110610fbb57610fba6153c6565b5b60200260200101819052508380610fd190615458565b9450505b8080610fe090615458565b915050610d7c565b50508080610ff590615458565b915050610caf565b5060008167ffffffffffffffff81111561101a5761101961449e565b5b60405190808252806020026020018201604052801561105357816020015b611040614083565b8152602001906001900390816110385790505b50905060005b828110156110ad57838181518110611074576110736153c6565b5b602002602001015182828151811061108f5761108e6153c6565b5b602002602001018190525080806110a590615458565b915050611059565b508094505050505090565b60006110c382613088565b9050919050565b60008073ffffffffffffffffffffffffffffffffffffffff168273ffffffffffffffffffffffffffffffffffffffff160361113d5760006040517f89c62b640000000000000000000000000000000000000000000000000000000081526004016111349190614390565b60405180910390fd5b600360008373ffffffffffffffffffffffffffffffffffffffff1673ffffffffffffffffffffffffffffffffffffffff168152602001908152602001600020549050919050565b60011515600d60003373ffffffffffffffffffffffffffffffffffffffff1673ffffffffffffffffffffffffffffffffffffffff16815260200190815260200160002060030160009054906101000a900460ff16151503611211576040517fd575adb800000000000000000000000000000000000000000000000000000000815260040160405180910390fd5b60016002811115611225576112246149b7565b5b600b60003373ffffffffffffffffffffffffffffffffffffffff1673ffffffffffffffffffffffffffffffffffffffff16815260200190815260200160002060009054906101000a900460ff166002811115611284576112836149b7565b5b036112bb576040517fc5b7cc6300000000000000000000000000000000000000000000000000000000815260040160405180910390fd5b6002600b60003373ffffffffffffffffffffffffffffffffffffffff1673ffffffffffffffffffffffffffffffffffffffff16815260200190815260200160002060006101000a81548160ff0219169083600281111561131e5761131d6149b7565b5b0217905550601060008373ffffffffffffffffffffffffffffffffffffffff1673ffffffffffffffffffffffffffffffffffffffff168152602001908152602001600020339080600181540180825580915050600190039060005260206000200160009091909190916101000a81548173ffffffffffffffffffffffffffffffffffffffff021916908373ffffffffffffffffffffffffffffffffffffffff16021790555060405180608001604052808481526020018373ffffffffffffffffffffffffffffffffffffffff16815260200182815260200160011515815250600d60003373ffffffffffffffffffffffffffffffffffffffff1673ffffffffffffffffffffffffffffffffffffffff168152602001908152602001600020600082015181600001908161145191906152f4565b5060208201518160010160006101000a81548173ffffffffffffffffffffffffffffffffffffffff021916908373ffffffffffffffffffffffffffffffffffffffff16021790555060408201518160020190816114ae91906152f4565b5060608201518160030160006101000a81548160ff021916908315150217905550905050505050565b60006006549050600660008154809291906114f190615458565b91905055506040518060a001604052808581526020018481526020018367ffffffffffffffff1681526020018281526020018773ffffffffffffffffffffffffffffffffffffffff1681525060076000838152602001908152602001600020600082015181600001908161156591906152f4565b50602082015181600101908161157b91906152f4565b50604082015181600201556060820151816003015560808201518160040160006101000a81548173ffffffffffffffffffffffffffffffffffffffff021916908373ffffffffffffffffffffffffffffffffffffffff16021790555090505060008267ffffffffffffffff1603611839576115f68582613167565b6116008184613260565b60016009600083815260200190815260200160002060006101000a81548160ff02191690831515021790555060405160200161163b906154ec565b60405160208183030381529060405280519060200120846040516020016116629190615131565b60405160208183030381529060405280519060200120036116da5780600860008873ffffffffffffffffffffffffffffffffffffffff1673ffffffffffffffffffffffffffffffffffffffff1681526020019081526020016000206000600481106116d0576116cf6153c6565b5b0181905550611834565b6040516020016116e99061554d565b60405160208183030381529060405280519060200120846040516020016117109190615131565b60405160208183030381529060405280519060200120036117885780600860008873ffffffffffffffffffffffffffffffffffffffff1673ffffffffffffffffffffffffffffffffffffffff16815260200190815260200160002060016004811061177e5761177d6153c6565b5b0181905550611833565b604051602001611797906155ae565b60405160208183030381529060405280519060200120846040516020016117be9190615131565b60405160208183030381529060405280519060200120036118325780600860008873ffffffffffffffffffffffffffffffffffffffff1673ffffffffffffffffffffffffffffffffffffffff16815260200190815260200160002060026004811061182c5761182b6153c6565b5b01819055505b5b5b6118f9565b6118438682613167565b61184e818684612cac565b60405160200161185d9061560f565b60405160208183030381529060405280519060200120846040516020016118849190615131565b60405160208183030381529060405280519060200120036118f85780600860008773ffffffffffffffffffffffffffffffffffffffff1673ffffffffffffffffffffffffffffffffffffffff1681526020019081526020016000206003600481106118f2576118f16153c6565b5b01819055505b5b505050505050565b6000600b60003373ffffffffffffffffffffffffffffffffffffffff1673ffffffffffffffffffffffffffffffffffffffff16815260200190815260200160002060009054906101000a900460ff16905090565b60004260076000848152602001908152602001600020600201541061199257600760008381526020019081526020016000206002015490506119b6565b7fffffffffffffffffffffffffffffffffffffffffffffffffffffffffffffffff90505b919050565b6002808111156119ce576119cd6149b7565b5b600b60003373ffffffffffffffffffffffffffffffffffffffff1673ffffffffffffffffffffffffffffffffffffffff16815260200190815260200160002060009054906101000a900460ff166002811115611a2d57611a2c6149b7565b5b14611a64576040517f777ab36c00000000000000000000000000000000000000000000000000000000815260040160405180910390fd5b60001515600c60008473ffffffffffffffffffffffffffffffffffffffff1673ffffffffffffffffffffffffffffffffffffffff16815260200190815260200160002060030160009054906101000a900460ff16151503611af1576040517f57304c6600000000000000000000000000000000000000000000000000000000815260040160405180910390fd5b60001515600d60003373ffffffffffffffffffffffffffffffffffffffff1673ffffffffffffffffffffffffffffffffffffffff16815260200190815260200160002060030160009054906101000a900460ff16151503611b7e576040517ff46ab27d00000000000000000000000000000000000000000000000000000000815260040160405180910390fd5b600f60003373ffffffffffffffffffffffffffffffffffffffff1673ffffffffffffffffffffffffffffffffffffffff16815260200190815260200160002060405180606001604052803373ffffffffffffffffffffffffffffffffffffffff16815260200183815260200160011515815250908060018154018082558091505060019003906000526020600020906003020160009091909190915060008201518160000160006101000a81548173ffffffffffffffffffffffffffffffffffffffff021916908373ffffffffffffffffffffffffffffffffffffffff1602179055506020820151816001019081611c7691906152f4565b5060408201518160020160006101000a81548160ff02191690831515021790555050505050565b606060018054611cac906150c4565b80601f0160208091040260200160405190810160405280929190818152602001828054611cd8906150c4565b8015611d255780601f10611cfa57610100808354040283529160200191611d25565b820191906000526020600020905b815481529060010190602001808311611d0857829003601f168201915b5050505050905090565b60065481565b60016002811115611d4957611d486149b7565b5b600b60003373ffffffffffffffffffffffffffffffffffffffff1673ffffffffffffffffffffffffffffffffffffffff16815260200190815260200160002060009054906101000a900460ff166002811115611da857611da76149b7565b5b14611ddf576040517f39ba880400000000000000000000000000000000000000000000000000000000815260040160405180910390fd5b60005b600f60008673ffffffffffffffffffffffffffffffffffffffff1673ffffffffffffffffffffffffffffffffffffffff16815260200190815260200160002080549050811015611fec57600f60008673ffffffffffffffffffffffffffffffffffffffff1673ffffffffffffffffffffffffffffffffffffffff1681526020019081526020016000208181548110611e7d57611e7c6153c6565b5b906000526020600020906003020160020160009054906101000a900460ff168015611f54575083604051602001611eb49190615131565b60405160208183030381529060405280519060200120600f60008773ffffffffffffffffffffffffffffffffffffffff1673ffffffffffffffffffffffffffffffffffffffff1681526020019081526020016000208281548110611f1b57611f1a6153c6565b5b9060005260206000209060030201600101604051602001611f3c91906156a7565b60405160208183030381529060405280519060200120145b15611fd9576000600f60008773ffffffffffffffffffffffffffffffffffffffff1673ffffffffffffffffffffffffffffffffffffffff1681526020019081526020016000208281548110611fac57611fab6153c6565b5b906000526020600020906003020160020160006101000a81548160ff021916908315150217905550611fec565b8080611fe490615458565b915050611de2565b5060008167ffffffffffffffff16036120125761200d8485858560006114d7565b612020565b61201f33858585856114d7565b5b50505050565b61203861203161314d565b83836132bc565b5050565b6120478484846107cf565b6120538484848461342b565b50505050565b600080600860008473ffffffffffffffffffffffffffffffffffffffff1673ffffffffffffffffffffffffffffffffffffffff1681526020019081526020016000206003600481106120ae576120ad6153c6565b5b015490508273ffffffffffffffffffffffffffffffffffffffff166120d28261215b565b73ffffffffffffffffffffffffffffffffffffffff1603612150576000600860008573ffffffffffffffffffffffffffffffffffffffff1673ffffffffffffffffffffffffffffffffffffffff168152602001908152602001600020600360048110612141576121406153c6565b5b01819055506001915050612156565b60009150505b919050565b6000426007600084815260200190815260200160002060020154106121b8576007600083815260200190815260200160002060040160009054906101000a900473ffffffffffffffffffffffffffffffffffffffff1690506121c4565b6121c1826110b8565b90505b919050565b60606121d4826135e2565b9050919050565b6121e36140bc565b600d60008373ffffffffffffffffffffffffffffffffffffffff1673ffffffffffffffffffffffffffffffffffffffff16815260200190815260200160002060405180608001604052908160008201805461223d906150c4565b80601f0160208091040260200160405190810160405280929190818152602001828054612269906150c4565b80156122b65780601f1061228b576101008083540402835291602001916122b6565b820191906000526020600020905b81548152906001019060200180831161229957829003601f168201915b505050505081526020016001820160009054906101000a900473ffffffffffffffffffffffffffffffffffffffff1673ffffffffffffffffffffffffffffffffffffffff1673ffffffffffffffffffffffffffffffffffffffff168152602001600282018054612325906150c4565b80601f0160208091040260200160405190810160405280929190818152602001828054612351906150c4565b801561239e5780601f106123735761010080835404028352916020019161239e565b820191906000526020600020905b81548152906001019060200180831161238157829003601f168201915b505050505081526020016003820160009054906101000a900460ff1615151515815250509050919050565b60606000600467ffffffffffffffff8111156123e8576123e761449e565b5b60405190808252806020026020018201604052801561242157816020015b61240e6140fc565b8152602001906001900390816124065790505b5090506000805b60048110156126c9576000600860008773ffffffffffffffffffffffffffffffffffffffff1673ffffffffffffffffffffffffffffffffffffffff1681526020019081526020016000208260048110612484576124836153c6565b5b0154146126b65760076000600860008873ffffffffffffffffffffffffffffffffffffffff1673ffffffffffffffffffffffffffffffffffffffff16815260200190815260200160002083600481106124e0576124df6153c6565b5b015481526020019081526020016000206040518060a001604052908160008201805461250b906150c4565b80601f0160208091040260200160405190810160405280929190818152602001828054612537906150c4565b80156125845780601f1061255957610100808354040283529160200191612584565b820191906000526020600020905b81548152906001019060200180831161256757829003601f168201915b5050505050815260200160018201805461259d906150c4565b80601f01602080910402602001604051908101604052809291908181526020018280546125c9906150c4565b80156126165780601f106125eb57610100808354040283529160200191612616565b820191906000526020600020905b8154815290600101906020018083116125f957829003601f168201915b5050505050815260200160028201548152602001600382015481526020016004820160009054906101000a900473ffffffffffffffffffffffffffffffffffffffff1673ffffffffffffffffffffffffffffffffffffffff1673ffffffffffffffffffffffffffffffffffffffff168152505083838151811061269c5761269b6153c6565b5b602002602001018190525081806126b290615458565b9250505b80806126c190615458565b915050612428565b508192505050919050565b60606002808111156126e9576126e86149b7565b5b600b60003373ffffffffffffffffffffffffffffffffffffffff1673ffffffffffffffffffffffffffffffffffffffff16815260200190815260200160002060009054906101000a900460ff166002811115612748576127476149b7565b5b1461277f576040517f777ab36c00000000000000000000000000000000000000000000000000000000815260040160405180910390fd5b6000600f60003373ffffffffffffffffffffffffffffffffffffffff1673ffffffffffffffffffffffffffffffffffffffff1681526020019081526020016000208054905067ffffffffffffffff8111156127dd576127dc61449e565b5b60405190808252806020026020018201604052801561281657816020015b612803614083565b8152602001906001900390816127fb5790505b50905060005b600f60003373ffffffffffffffffffffffffffffffffffffffff1673ffffffffffffffffffffffffffffffffffffffff16815260200190815260200160002080549050811015612a7a57600f60003373ffffffffffffffffffffffffffffffffffffffff1673ffffffffffffffffffffffffffffffffffffffff16815260200190815260200160002081815481106128b7576128b66153c6565b5b906000526020600020906003020160020160009054906101000a900460ff1615612a6757600f60003373ffffffffffffffffffffffffffffffffffffffff1673ffffffffffffffffffffffffffffffffffffffff168152602001908152602001600020818154811061292c5761292b6153c6565b5b90600052602060002090600302016040518060600160405290816000820160009054906101000a900473ffffffffffffffffffffffffffffffffffffffff1673ffffffffffffffffffffffffffffffffffffffff1673ffffffffffffffffffffffffffffffffffffffff1681526020016001820180546129ab906150c4565b80601f01602080910402602001604051908101604052809291908181526020018280546129d7906150c4565b8015612a245780601f106129f957610100808354040283529160200191612a24565b820191906000526020600020905b815481529060010190602001808311612a0757829003601f168201915b505050505081526020016002820160009054906101000a900460ff161515151581525050828281518110612a5b57612a5a6153c6565b5b60200260200101819052505b8080612a7290615458565b91505061281c565b508091505090565b612a8a614141565b600c60008373ffffffffffffffffffffffffffffffffffffffff1673ffffffffffffffffffffffffffffffffffffffff168152602001908152602001600020604051806080016040529081600082018054612ae4906150c4565b80601f0160208091040260200160405190810160405280929190818152602001828054612b10906150c4565b8015612b5d5780601f10612b3257610100808354040283529160200191612b5d565b820191906000526020600020905b815481529060010190602001808311612b4057829003601f168201915b50505050508152602001600182018054612b76906150c4565b80601f0160208091040260200160405190810160405280929190818152602001828054612ba2906150c4565b8015612bef5780601f10612bc457610100808354040283529160200191612bef565b820191906000526020600020905b815481529060010190602001808311612bd257829003601f168201915b50505050508152602001600282018054612c08906150c4565b80601f0160208091040260200160405190810160405280929190818152602001828054612c34906150c4565b8015612c815780601f10612c5657610100808354040283529160200191612c81565b820191906000526020600020905b815481529060010190602001808311612c6457829003601f168201915b505050505081526020016003820160009054906101000a900460ff1615151515815250509050919050565b6000600760008581526020019081526020016000209050828160040160006101000a81548173ffffffffffffffffffffffffffffffffffffffff021916908373ffffffffffffffffffffffffffffffffffffffff1602179055508167ffffffffffffffff16816002018190555050505050565b6000600560008473ffffffffffffffffffffffffffffffffffffffff1673ffffffffffffffffffffffffffffffffffffffff16815260200190815260200160002060008373ffffffffffffffffffffffffffffffffffffffff1673ffffffffffffffffffffffffffffffffffffffff16815260200190815260200160002060009054906101000a900460ff16905092915050565b6060600280811115612dc857612dc76149b7565b5b600b60003373ffffffffffffffffffffffffffffffffffffffff1673ffffffffffffffffffffffffffffffffffffffff16815260200190815260200160002060009054906101000a900460ff166002811115612e2757612e266149b7565b5b14612e5e576040517f777ab36c00000000000000000000000000000000000000000000000000000000815260040160405180910390fd5b612e67336123c9565b905090565b612e746140fc565b600760008381526020019081526020016000206040518060a0016040529081600082018054612ea2906150c4565b80601f0160208091040260200160405190810160405280929190818152602001828054612ece906150c4565b8015612f1b5780601f10612ef057610100808354040283529160200191612f1b565b820191906000526020600020905b815481529060010190602001808311612efe57829003601f168201915b50505050508152602001600182018054612f34906150c4565b80601f0160208091040260200160405190810160405280929190818152602001828054612f60906150c4565b8015612fad5780601f10612f8257610100808354040283529160200191612fad565b820191906000526020600020905b815481529060010190602001808311612f9057829003601f168201915b5050505050815260200160028201548152602001600382015481526020016004820160009054906101000a900473ffffffffffffffffffffffffffffffffffffffff1673ffffffffffffffffffffffffffffffffffffffff1673ffffffffffffffffffffffffffffffffffffffff16815250509050919050565b6000634906490660e01b7bffffffffffffffffffffffffffffffffffffffffffffffffffffffff1916827bffffffffffffffffffffffffffffffffffffffffffffffffffffffff191614806130815750613080826136f5565b5b9050919050565b600080613094836137d7565b9050600073ffffffffffffffffffffffffffffffffffffffff168173ffffffffffffffffffffffffffffffffffffffff160361310757826040517f7e2732890000000000000000000000000000000000000000000000000000000081526004016130fe9190614426565b60405180910390fd5b80915050919050565b60006004600083815260200190815260200160002060009054906101000a900473ffffffffffffffffffffffffffffffffffffffff169050919050565b600033905090565b6131628383836001613814565b505050565b600073ffffffffffffffffffffffffffffffffffffffff168273ffffffffffffffffffffffffffffffffffffffff16036131d95760006040517f64a0ae920000000000000000000000000000000000000000000000000000000081526004016131d09190614390565b60405180910390fd5b60006131e7838360006139d9565b9050600073ffffffffffffffffffffffffffffffffffffffff168173ffffffffffffffffffffffffffffffffffffffff161461325b5760006040517f73c6ac6e0000000000000000000000000000000000000000000000000000000081526004016132529190614390565b60405180910390fd5b505050565b80600a6000848152602001908152602001600020908161328091906152f4565b507ff8e1a15aba9398e019f0b49df1a4fde98ee17ae345cb5f6b5e2c27f5033e8ce7826040516132b09190614426565b60405180910390a15050565b600073ffffffffffffffffffffffffffffffffffffffff168273ffffffffffffffffffffffffffffffffffffffff160361332d57816040517f5b08ba180000000000000000000000000000000000000000000000000000000081526004016133249190614390565b60405180910390fd5b80600560008573ffffffffffffffffffffffffffffffffffffffff1673ffffffffffffffffffffffffffffffffffffffff16815260200190815260200160002060008473ffffffffffffffffffffffffffffffffffffffff1673ffffffffffffffffffffffffffffffffffffffff16815260200190815260200160002060006101000a81548160ff0219169083151502179055508173ffffffffffffffffffffffffffffffffffffffff168373ffffffffffffffffffffffffffffffffffffffff167f17307eab39ab6107e8899845ad3d59bd9653f200f220920489ca2b5937696c318360405161341e919061421f565b60405180910390a3505050565b60008373ffffffffffffffffffffffffffffffffffffffff163b11156135dc578273ffffffffffffffffffffffffffffffffffffffff1663150b7a0261346f61314d565b8685856040518563ffffffff1660e01b81526004016134919493929190615713565b6020604051808303816000875af19250505080156134cd57506040513d601f19601f820116820180604052508101906134ca9190615774565b60015b613551573d80600081146134fd576040519150601f19603f3d011682016040523d82523d6000602084013e613502565b606091505b50600081510361354957836040517f64a0ae920000000000000000000000000000000000000000000000000000000081526004016135409190614390565b60405180910390fd5b805181602001fd5b63150b7a0260e01b7bffffffffffffffffffffffffffffffffffffffffffffffffffffffff1916817bffffffffffffffffffffffffffffffffffffffffffffffffffffffff1916146135da57836040517f64a0ae920000000000000000000000000000000000000000000000000000000081526004016135d19190614390565b60405180910390fd5b505b50505050565b60606135ed82613088565b506000600a6000848152602001908152602001600020805461360e906150c4565b80601f016020809104026020016040519081016040528092919081815260200182805461363a906150c4565b80156136875780601f1061365c57610100808354040283529160200191613687565b820191906000526020600020905b81548152906001019060200180831161366a57829003601f168201915b505050505090506000613698613bf3565b905060008151036136ad5781925050506136f0565b6000825111156136e25780826040516020016136ca9291906157a1565b604051602081830303815290604052925050506136f0565b6136eb84613c0a565b925050505b919050565b60007f80ac58cd000000000000000000000000000000000000000000000000000000007bffffffffffffffffffffffffffffffffffffffffffffffffffffffff1916827bffffffffffffffffffffffffffffffffffffffffffffffffffffffff191614806137c057507f5b5e139f000000000000000000000000000000000000000000000000000000007bffffffffffffffffffffffffffffffffffffffffffffffffffffffff1916827bffffffffffffffffffffffffffffffffffffffffffffffffffffffff1916145b806137d057506137cf82613c73565b5b9050919050565b60006002600083815260200190815260200160002060009054906101000a900473ffffffffffffffffffffffffffffffffffffffff169050919050565b808061384d5750600073ffffffffffffffffffffffffffffffffffffffff168273ffffffffffffffffffffffffffffffffffffffff1614155b1561398157600061385d84613088565b9050600073ffffffffffffffffffffffffffffffffffffffff168373ffffffffffffffffffffffffffffffffffffffff16141580156138c857508273ffffffffffffffffffffffffffffffffffffffff168173ffffffffffffffffffffffffffffffffffffffff1614155b80156138db57506138d98184612d1f565b155b1561391d57826040517fa9fbf51f0000000000000000000000000000000000000000000000000000000081526004016139149190614390565b60405180910390fd5b811561397f57838573ffffffffffffffffffffffffffffffffffffffff168273ffffffffffffffffffffffffffffffffffffffff167f8c5be1e5ebec7d5bd14f71427d1e84f3dd0314c0f7b2291e5b200ac8c7c3b92560405160405180910390a45b505b836004600085815260200190815260200160002060006101000a81548173ffffffffffffffffffffffffffffffffffffffff021916908373ffffffffffffffffffffffffffffffffffffffff16021790555050505050565b6000806139e5846137d7565b9050600073ffffffffffffffffffffffffffffffffffffffff168373ffffffffffffffffffffffffffffffffffffffff1614613a2757613a26818486613cdd565b5b600073ffffffffffffffffffffffffffffffffffffffff168173ffffffffffffffffffffffffffffffffffffffff1614613ab857613a69600085600080613814565b6001600360008373ffffffffffffffffffffffffffffffffffffffff1673ffffffffffffffffffffffffffffffffffffffff168152602001908152602001600020600082825403925050819055505b600073ffffffffffffffffffffffffffffffffffffffff168573ffffffffffffffffffffffffffffffffffffffff1614613b3b576001600360008773ffffffffffffffffffffffffffffffffffffffff1673ffffffffffffffffffffffffffffffffffffffff168152602001908152602001600020600082825401925050819055505b846002600086815260200190815260200160002060006101000a81548173ffffffffffffffffffffffffffffffffffffffff021916908373ffffffffffffffffffffffffffffffffffffffff160217905550838573ffffffffffffffffffffffffffffffffffffffff168273ffffffffffffffffffffffffffffffffffffffff167fddf252ad1be2c89b69c2b068fc378daa952ba7f163c4a11628f55a4df523b3ef60405160405180910390a4809150509392505050565b606060405180602001604052806000815250905090565b6060613c1582613088565b506000613c20613bf3565b90506000815111613c405760405180602001604052806000815250613c6b565b80613c4a84613da1565b604051602001613c5b9291906157a1565b6040516020818303038152906040525b915050919050565b60007f01ffc9a7000000000000000000000000000000000000000000000000000000007bffffffffffffffffffffffffffffffffffffffffffffffffffffffff1916827bffffffffffffffffffffffffffffffffffffffffffffffffffffffff1916149050919050565b613ce8838383613e6f565b613d9c57600073ffffffffffffffffffffffffffffffffffffffff168373ffffffffffffffffffffffffffffffffffffffff1603613d5d57806040517f7e273289000000000000000000000000000000000000000000000000000000008152600401613d549190614426565b60405180910390fd5b81816040517f177e802f000000000000000000000000000000000000000000000000000000008152600401613d939291906157c5565b60405180910390fd5b505050565b606060006001613db084613f30565b01905060008167ffffffffffffffff811115613dcf57613dce61449e565b5b6040519080825280601f01601f191660200182016040528015613e015781602001600182028036833780820191505090505b509050600082602001820190505b600115613e64578080600190039150507f3031323334353637383961626364656600000000000000000000000000000000600a86061a8153600a8581613e5857613e576157ee565b5b04945060008503613e0f575b819350505050919050565b60008073ffffffffffffffffffffffffffffffffffffffff168373ffffffffffffffffffffffffffffffffffffffff1614158015613f2757508273ffffffffffffffffffffffffffffffffffffffff168473ffffffffffffffffffffffffffffffffffffffff161480613ee85750613ee78484612d1f565b5b80613f2657508273ffffffffffffffffffffffffffffffffffffffff16613f0e83613110565b73ffffffffffffffffffffffffffffffffffffffff16145b5b90509392505050565b600080600090507a184f03e93ff9f4daa797ed6e38ed64bf6a1f0100000000000000008310613f8e577a184f03e93ff9f4daa797ed6e38ed64bf6a1f0100000000000000008381613f8457613f836157ee565b5b0492506040810190505b6d04ee2d6d415b85acef81000000008310613fcb576d04ee2d6d415b85acef81000000008381613fc157613fc06157ee565b5b0492506020810190505b662386f26fc100008310613ffa57662386f26fc100008381613ff057613fef6157ee565b5b0492506010810190505b6305f5e1008310614023576305f5e1008381614019576140186157ee565b5b0492506008810190505b612710831061404857612710838161403e5761403d6157ee565b5b0492506004810190505b6064831061406b5760648381614061576140606157ee565b5b0492506002810190505b600a831061407a576001810190505b80915050919050565b6040518060600160405280600073ffffffffffffffffffffffffffffffffffffffff168152602001606081526020016000151581525090565b604051806080016040528060608152602001600073ffffffffffffffffffffffffffffffffffffffff168152602001606081526020016000151581525090565b6040518060a0016040528060608152602001606081526020016000815260200160008152602001600073ffffffffffffffffffffffffffffffffffffffff1681525090565b60405180608001604052806060815260200160608152602001606081526020016000151581525090565b6000604051905090565b600080fd5b600080fd5b60007fffffffff0000000000000000000000000000000000000000000000000000000082169050919050565b6141b48161417f565b81146141bf57600080fd5b50565b6000813590506141d1816141ab565b92915050565b6000602082840312156141ed576141ec614175565b5b60006141fb848285016141c2565b91505092915050565b60008115159050919050565b61421981614204565b82525050565b60006020820190506142346000830184614210565b92915050565b600081519050919050565b600082825260208201905092915050565b60005b83811015614274578082015181840152602081019050614259565b60008484015250505050565b6000601f19601f8301169050919050565b600061429c8261423a565b6142a68185614245565b93506142b6818560208601614256565b6142bf81614280565b840191505092915050565b600060208201905081810360008301526142e48184614291565b905092915050565b6000819050919050565b6142ff816142ec565b811461430a57600080fd5b50565b60008135905061431c816142f6565b92915050565b60006020828403121561433857614337614175565b5b60006143468482850161430d565b91505092915050565b600073ffffffffffffffffffffffffffffffffffffffff82169050919050565b600061437a8261434f565b9050919050565b61438a8161436f565b82525050565b60006020820190506143a56000830184614381565b92915050565b6143b48161436f565b81146143bf57600080fd5b50565b6000813590506143d1816143ab565b92915050565b600080604083850312156143ee576143ed614175565b5b60006143fc858286016143c2565b925050602061440d8582860161430d565b9150509250929050565b614420816142ec565b82525050565b600060208201905061443b6000830184614417565b92915050565b60008060006060848603121561445a57614459614175565b5b6000614468868287016143c2565b9350506020614479868287016143c2565b925050604061448a8682870161430d565b9150509250925092565b600080fd5b600080fd5b7f4e487b7100000000000000000000000000000000000000000000000000000000600052604160045260246000fd5b6144d682614280565b810181811067ffffffffffffffff821117156144f5576144f461449e565b5b80604052505050565b600061450861416b565b905061451482826144cd565b919050565b600067ffffffffffffffff8211156145345761453361449e565b5b61453d82614280565b9050602081019050919050565b82818337600083830152505050565b600061456c61456784614519565b6144fe565b90508281526020810184848401111561458857614587614499565b5b61459384828561454a565b509392505050565b600082601f8301126145b0576145af614494565b5b81356145c0848260208601614559565b91505092915050565b6000806000606084860312156145e2576145e1614175565b5b600084013567ffffffffffffffff811115614600576145ff61417a565b5b61460c8682870161459b565b935050602084013567ffffffffffffffff81111561462d5761462c61417a565b5b6146398682870161459b565b925050604084013567ffffffffffffffff81111561465a5761465961417a565b5b6146668682870161459b565b9150509250925092565b600081519050919050565b600082825260208201905092915050565b6000819050602082019050919050565b6146a58161436f565b82525050565b600082825260208201905092915050565b60006146c78261423a565b6146d181856146ab565b93506146e1818560208601614256565b6146ea81614280565b840191505092915050565b6146fe81614204565b82525050565b600060608301600083015161471c600086018261469c565b506020830151848203602086015261473482826146bc565b915050604083015161474960408601826146f5565b508091505092915050565b60006147608383614704565b905092915050565b6000602082019050919050565b600061478082614670565b61478a818561467b565b93508360208202850161479c8561468c565b8060005b858110156147d857848403895281516147b98582614754565b94506147c483614768565b925060208a019950506001810190506147a0565b50829750879550505050505092915050565b600060208201905081810360008301526148048184614775565b905092915050565b60006020828403121561482257614821614175565b5b6000614830848285016143c2565b91505092915050565b60008060006060848603121561485257614851614175565b5b600084013567ffffffffffffffff8111156148705761486f61417a565b5b61487c8682870161459b565b935050602061488d868287016143c2565b925050604084013567ffffffffffffffff8111156148ae576148ad61417a565b5b6148ba8682870161459b565b9150509250925092565b600067ffffffffffffffff82169050919050565b6148e1816148c4565b81146148ec57600080fd5b50565b6000813590506148fe816148d8565b92915050565b600080600080600060a086880312156149205761491f614175565b5b600061492e888289016143c2565b955050602061493f888289016143c2565b945050604086013567ffffffffffffffff8111156149605761495f61417a565b5b61496c8882890161459b565b935050606086013567ffffffffffffffff81111561498d5761498c61417a565b5b6149998882890161459b565b92505060806149aa888289016148ef565b9150509295509295909350565b7f4e487b7100000000000000000000000000000000000000000000000000000000600052602160045260246000fd5b600381106149f7576149f66149b7565b5b50565b6000819050614a08826149e6565b919050565b6000614a18826149fa565b9050919050565b614a2881614a0d565b82525050565b6000602082019050614a436000830184614a1f565b92915050565b60008060408385031215614a6057614a5f614175565b5b6000614a6e858286016143c2565b925050602083013567ffffffffffffffff811115614a8f57614a8e61417a565b5b614a9b8582860161459b565b9150509250929050565b60008060008060808587031215614abf57614abe614175565b5b6000614acd878288016143c2565b945050602085013567ffffffffffffffff811115614aee57614aed61417a565b5b614afa8782880161459b565b935050604085013567ffffffffffffffff811115614b1b57614b1a61417a565b5b614b278782880161459b565b9250506060614b38878288016148ef565b91505092959194509250565b614b4d81614204565b8114614b5857600080fd5b50565b600081359050614b6a81614b44565b92915050565b60008060408385031215614b8757614b86614175565b5b6000614b95858286016143c2565b9250506020614ba685828601614b5b565b9150509250929050565b600067ffffffffffffffff821115614bcb57614bca61449e565b5b614bd482614280565b9050602081019050919050565b6000614bf4614bef84614bb0565b6144fe565b905082815260208101848484011115614c1057614c0f614499565b5b614c1b84828561454a565b509392505050565b600082601f830112614c3857614c37614494565b5b8135614c48848260208601614be1565b91505092915050565b60008060008060808587031215614c6b57614c6a614175565b5b6000614c79878288016143c2565b9450506020614c8a878288016143c2565b9350506040614c9b8782880161430d565b925050606085013567ffffffffffffffff811115614cbc57614cbb61417a565b5b614cc887828801614c23565b91505092959194509250565b60006080830160008301518482036000860152614cf182826146bc565b9150506020830151614d06602086018261469c565b5060408301518482036040860152614d1e82826146bc565b9150506060830151614d3360608601826146f5565b508091505092915050565b60006020820190508181036000830152614d588184614cd4565b905092915050565b600081519050919050565b600082825260208201905092915050565b6000819050602082019050919050565b614d95816142ec565b82525050565b600060a0830160008301518482036000860152614db882826146bc565b91505060208301518482036020860152614dd282826146bc565b9150506040830151614de76040860182614d8c565b506060830151614dfa6060860182614d8c565b506080830151614e0d608086018261469c565b508091505092915050565b6000614e248383614d9b565b905092915050565b6000602082019050919050565b6000614e4482614d60565b614e4e8185614d6b565b935083602082028501614e6085614d7c565b8060005b85811015614e9c5784840389528151614e7d8582614e18565b9450614e8883614e2c565b925060208a01995050600181019050614e64565b50829750879550505050505092915050565b60006020820190508181036000830152614ec88184614e39565b905092915050565b60006080830160008301518482036000860152614eed82826146bc565b91505060208301518482036020860152614f0782826146bc565b91505060408301518482036040860152614f2182826146bc565b9150506060830151614f3660608601826146f5565b508091505092915050565b60006020820190508181036000830152614f5b8184614ed0565b905092915050565b600080600060608486031215614f7c57614f7b614175565b5b6000614f8a8682870161430d565b9350506020614f9b868287016143c2565b9250506040614fac868287016148ef565b9150509250925092565b60008060408385031215614fcd57614fcc614175565b5b6000614fdb858286016143c2565b9250506020614fec858286016143c2565b9150509250929050565b600060a083016000830151848203600086015261501382826146bc565b9150506020830151848203602086015261502d82826146bc565b91505060408301516150426040860182614d8c565b5060608301516150556060860182614d8c565b506080830151615068608086018261469c565b508091505092915050565b6000602082019050818103600083015261508d8184614ff6565b905092915050565b7f4e487b7100000000000000000000000000000000000000000000000000000000600052602260045260246000fd5b600060028204905060018216806150dc57607f821691505b6020821081036150ef576150ee615095565b5b50919050565b600081905092915050565b600061510b8261423a565b61511581856150f5565b9350615125818560208601614256565b80840191505092915050565b600061513d8284615100565b915081905092915050565b60008190508160005260206000209050919050565b60006020601f8301049050919050565b600082821b905092915050565b6000600883026151aa7fffffffffffffffffffffffffffffffffffffffffffffffffffffffffffffffff8261516d565b6151b4868361516d565b95508019841693508086168417925050509392505050565b6000819050919050565b60006151f16151ec6151e7846142ec565b6151cc565b6142ec565b9050919050565b6000819050919050565b61520b836151d6565b61521f615217826151f8565b84845461517a565b825550505050565b600090565b615234615227565b61523f818484615202565b505050565b5b818110156152635761525860008261522c565b600181019050615245565b5050565b601f8211156152a85761527981615148565b6152828461515d565b81016020851015615291578190505b6152a561529d8561515d565b830182615244565b50505b505050565b600082821c905092915050565b60006152cb600019846008026152ad565b1980831691505092915050565b60006152e483836152ba565b9150826002028217905092915050565b6152fd8261423a565b67ffffffffffffffff8111156153165761531561449e565b5b61532082546150c4565b61532b828285615267565b600060209050601f83116001811461535e576000841561534c578287015190505b61535685826152d8565b8655506153be565b601f19841661536c86615148565b60005b828110156153945784890151825560018201915060208501945060208101905061536f565b868310156153b157848901516153ad601f8916826152ba565b8355505b6001600288020188555050505b505050505050565b7f4e487b7100000000000000000000000000000000000000000000000000000000600052603260045260246000fd5b7f4e487b7100000000000000000000000000000000000000000000000000000000600052601160045260246000fd5b600061542f826142ec565b915061543a836142ec565b9250828201905080821115615452576154516153f5565b5b92915050565b6000615463826142ec565b91507fffffffffffffffffffffffffffffffffffffffffffffffffffffffffffffffff8203615495576154946153f5565b5b600182019050919050565b7f6c6f720000000000000000000000000000000000000000000000000000000000600082015250565b60006154d66003836150f5565b91506154e1826154a0565b600382019050919050565b60006154f7826154c9565b9150819050919050565b7f6772616465736865657400000000000000000000000000000000000000000000600082015250565b6000615537600a836150f5565b915061554282615501565b600a82019050919050565b60006155588261552a565b9150819050919050565b7f6465677265650000000000000000000000000000000000000000000000000000600082015250565b60006155986006836150f5565b91506155a382615562565b600682019050919050565b60006155b98261558b565b9150819050919050565b7f6964636172640000000000000000000000000000000000000000000000000000600082015250565b60006155f96006836150f5565b9150615604826155c3565b600682019050919050565b600061561a826155ec565b9150819050919050565b60008154615631816150c4565b61563b81866150f5565b94506001821660008114615656576001811461566b5761569e565b60ff198316865281151582028601935061569e565b61567485615148565b60005b8381101561569657815481890152600182019150602081019050615677565b838801955050505b50505092915050565b60006156b38284615624565b915081905092915050565b600081519050919050565b600082825260208201905092915050565b60006156e5826156be565b6156ef81856156c9565b93506156ff818560208601614256565b61570881614280565b840191505092915050565b60006080820190506157286000830187614381565b6157356020830186614381565b6157426040830185614417565b818103606083015261575481846156da565b905095945050505050565b60008151905061576e816141ab565b92915050565b60006020828403121561578a57615789614175565b5b60006157988482850161575f565b91505092915050565b60006157ad8285615100565b91506157b98284615100565b91508190509392505050565b60006040820190506157da6000830185614381565b6157e76020830184614417565b9392505050565b7f4e487b7100000000000000000000000000000000000000000000000000000000600052601260045260246000fdfea26469706673582212202a2b48983e2ff3c4422221033a882c8ef4e6ea879eb8ec2ba35c865bb218e99864736f6c63430008140033",
  "linkReferences": {},
  "deployedLinkReferences": {}
}