{
  "_format": "hh-sol-artifact-1",
  "contractName": "KeepItSafe",
  "sourceName": "contracts/KeepItSafe.sol",
  "address": "0x5b8E50C35dD4d3e47A0731E91f5649e096439031",
  "abi": [
    {
      "inputs": [],
      "stateMutability": "nonpayable",
      "type": "constructor"
    },
    {
      "inputs": [
        {
          "internalType": "address",
          "name": "sender",
          "type": "address"
        },
        {
          "internalType": "uint256",
          "name": "tokenId",
          "type": "uint256"
        },
        {
          "internalType": "address",
          "name": "owner",
          "type": "address"
        }
      ],
      "name": "ERC721IncorrectOwner",
      "type": "error"
    },
    {
      "inputs": [
        {
          "internalType": "address",
          "name": "operator",
          "type": "address"
        },
        {
          "internalType": "uint256",
          "name": "tokenId",
          "type": "uint256"
        }
      ],
      "name": "ERC721InsufficientApproval",
      "type": "error"
    },
    {
      "inputs": [
        {
          "internalType": "address",
          "name": "approver",
          "type": "address"
        }
      ],
      "name": "ERC721InvalidApprover",
      "type": "error"
    },
    {
      "inputs": [
        {
          "internalType": "address",
          "name": "operator",
          "type": "address"
        }
      ],
      "name": "ERC721InvalidOperator",
      "type": "error"
    },
    {
      "inputs": [
        {
          "internalType": "address",
          "name": "owner",
          "type": "address"
        }
      ],
      "name": "ERC721InvalidOwner",
      "type": "error"
    },
    {
      "inputs": [
        {
          "internalType": "address",
          "name": "receiver",
          "type": "address"
        }
      ],
      "name": "ERC721InvalidReceiver",
      "type": "error"
    },
    {
      "inputs": [
        {
          "internalType": "address",
          "name": "sender",
          "type": "address"
        }
      ],
      "name": "ERC721InvalidSender",
      "type": "error"
    },
    {
      "inputs": [
        {
          "internalType": "uint256",
          "name": "tokenId",
          "type": "uint256"
        }
      ],
      "name": "ERC721NonexistentToken",
      "type": "error"
    },
    {
      "inputs": [],
      "name": "KeepItSafe__DomainAlreadyExists",
      "type": "error"
    },
    {
      "inputs": [],
      "name": "KeepItSafe__InstituteAlreadyExists",
      "type": "error"
    },
    {
      "inputs": [],
      "name": "KeepItSafe__InstituteCannotAddStudents",
      "type": "error"
    },
    {
      "inputs": [],
      "name": "KeepItSafe__InstituteDoesNotExists",
      "type": "error"
    },
    {
      "inputs": [],
      "name": "KeepItSafe__OnlyForInstituteRole",
      "type": "error"
    },
    {
      "inputs": [],
      "name": "KeepItSafe__OnlyForStudentRole",
      "type": "error"
    },
    {
      "inputs": [],
      "name": "KeepItSafe__StudentAlreadyExists",
      "type": "error"
    },
    {
      "inputs": [],
      "name": "KeepItSafe__StudentDoesNotExists",
      "type": "error"
    },
    {
      "inputs": [],
      "name": "XRC4907Storage__TokenIdLocked",
      "type": "error"
    },
    {
      "anonymous": false,
      "inputs": [
        {
          "indexed": true,
          "internalType": "address",
          "name": "owner",
          "type": "address"
        },
        {
          "indexed": true,
          "internalType": "address",
          "name": "approved",
          "type": "address"
        },
        {
          "indexed": true,
          "internalType": "uint256",
          "name": "tokenId",
          "type": "uint256"
        }
      ],
      "name": "Approval",
      "type": "event"
    },
    {
      "anonymous": false,
      "inputs": [
        {
          "indexed": true,
          "internalType": "address",
          "name": "owner",
          "type": "address"
        },
        {
          "indexed": true,
          "internalType": "address",
          "name": "operator",
          "type": "address"
        },
        {
          "indexed": false,
          "internalType": "bool",
          "name": "approved",
          "type": "bool"
        }
      ],
      "name": "ApprovalForAll",
      "type": "event"
    },
    {
      "anonymous": false,
      "inputs": [
        {
          "indexed": false,
          "internalType": "uint256",
          "name": "_fromTokenId",
          "type": "uint256"
        },
        {
          "indexed": false,
          "internalType": "uint256",
          "name": "_toTokenId",
          "type": "uint256"
        }
      ],
      "name": "BatchMetadataUpdate",
      "type": "event"
    },
    {
      "anonymous": false,
      "inputs": [
        {
          "indexed": false,
          "internalType": "uint256",
          "name": "_tokenId",
          "type": "uint256"
        }
      ],
      "name": "MetadataUpdate",
      "type": "event"
    },
    {
      "anonymous": false,
      "inputs": [
        {
          "indexed": true,
          "internalType": "address",
          "name": "from",
          "type": "address"
        },
        {
          "indexed": true,
          "internalType": "address",
          "name": "to",
          "type": "address"
        },
        {
          "indexed": true,
          "internalType": "uint256",
          "name": "tokenId",
          "type": "uint256"
        }
      ],
      "name": "Transfer",
      "type": "event"
    },
    {
      "anonymous": false,
      "inputs": [
        {
          "indexed": true,
          "internalType": "uint256",
          "name": "tokenId",
          "type": "uint256"
        },
        {
          "indexed": true,
          "internalType": "address",
          "name": "user",
          "type": "address"
        },
        {
          "indexed": false,
          "internalType": "uint64",
          "name": "expires",
          "type": "uint64"
        }
      ],
      "name": "UpdateUser",
      "type": "event"
    },
    {
      "inputs": [
        {
          "internalType": "string",
          "name": "_instituteName",
          "type": "string"
        },
        {
          "internalType": "string",
          "name": "_instituteLocation",
          "type": "string"
        },
        {
          "internalType": "string",
          "name": "_instituteDomain",
          "type": "string"
        }
      ],
      "name": "addInstitute",
      "outputs": [],
      "stateMutability": "nonpayable",
      "type": "function"
    },
    {
      "inputs": [
        {
          "internalType": "string",
          "name": "_studentName",
          "type": "string"
        },
        {
          "internalType": "address",
          "name": "_instituteAddress",
          "type": "address"
        },
        {
          "internalType": "string",
          "name": "_instituteDomain",
          "type": "string"
        }
      ],
      "name": "addStudent",
      "outputs": [],
      "stateMutability": "nonpayable",
      "type": "function"
    },
    {
      "inputs": [
        {
          "internalType": "address",
          "name": "to",
          "type": "address"
        },
        {
          "internalType": "uint256",
          "name": "tokenId",
          "type": "uint256"
        }
      ],
      "name": "approve",
      "outputs": [],
      "stateMutability": "nonpayable",
      "type": "function"
    },
    {
      "inputs": [
        {
          "internalType": "address",
          "name": "_studentAddress",
          "type": "address"
        },
        {
          "internalType": "string",
          "name": "_docType",
          "type": "string"
        },
        {
          "internalType": "string",
          "name": "_ipfsHash",
          "type": "string"
        },
        {
          "internalType": "uint64",
          "name": "_expiresIn",
          "type": "uint64"
        }
      ],
      "name": "approveDocumentRequest",
      "outputs": [],
      "stateMutability": "nonpayable",
      "type": "function"
    },
    {
      "inputs": [
        {
          "internalType": "address",
          "name": "owner",
          "type": "address"
        }
      ],
      "name": "balanceOf",
      "outputs": [
        {
          "internalType": "uint256",
          "name": "",
          "type": "uint256"
        }
      ],
      "stateMutability": "view",
      "type": "function"
    },
    {
      "inputs": [],
      "name": "getAllRequestsForInstitutes",
      "outputs": [
        {
          "components": [
            {
              "internalType": "address",
              "name": "student",
              "type": "address"
            },
            {
              "internalType": "string",
              "name": "docType",
              "type": "string"
            },
            {
              "internalType": "bool",
              "name": "exists",
              "type": "bool"
            }
          ],
          "internalType": "struct KeepItSafe.DocumentRequest[]",
          "name": "",
          "type": "tuple[]"
        }
      ],
      "stateMutability": "view",
      "type": "function"
    },
    {
      "inputs": [
        {
          "internalType": "address",
          "name": "_instituteAddress",
          "type": "address"
        }
      ],
      "name": "getAllStudentsOfInstitute",
      "outputs": [
        {
          "components": [
            {
              "internalType": "string",
              "name": "studentName",
              "type": "string"
            },
            {
              "internalType": "address",
              "name": "institueAddress",
              "type": "address"
            },
            {
              "internalType": "string",
              "name": "instituteDomain",
              "type": "string"
            },
            {
              "internalType": "bool",
              "name": "registered",
              "type": "bool"
            }
          ],
          "internalType": "struct KeepItSafe.Student[]",
          "name": "",
          "type": "tuple[]"
        }
      ],
      "stateMutability": "view",
      "type": "function"
    },
    {
      "inputs": [],
      "name": "getAllStudentsRequests",
      "outputs": [
        {
          "components": [
            {
              "internalType": "address",
              "name": "student",
              "type": "address"
            },
            {
              "internalType": "string",
              "name": "docType",
              "type": "string"
            },
            {
              "internalType": "bool",
              "name": "exists",
              "type": "bool"
            }
          ],
          "internalType": "struct KeepItSafe.DocumentRequest[]",
          "name": "",
          "type": "tuple[]"
        }
      ],
      "stateMutability": "view",
      "type": "function"
    },
    {
      "inputs": [
        {
          "internalType": "uint256",
          "name": "tokenId",
          "type": "uint256"
        }
      ],
      "name": "getApproved",
      "outputs": [
        {
          "internalType": "address",
          "name": "",
          "type": "address"
        }
      ],
      "stateMutability": "view",
      "type": "function"
    },
    {
      "inputs": [
        {
          "internalType": "address",
          "name": "_student",
          "type": "address"
        }
      ],
      "name": "getDocsForAStudent",
      "outputs": [
        {
          "components": [
            {
              "internalType": "string",
              "name": "docType",
              "type": "string"
            },
            {
              "internalType": "string",
              "name": "ipfsHash",
              "type": "string"
            },
            {
              "internalType": "uint256",
              "name": "expiresIn",
              "type": "uint256"
            },
            {
              "internalType": "uint256",
              "name": "tokenId",
              "type": "uint256"
            },
            {
              "internalType": "address",
              "name": "user",
              "type": "address"
            }
          ],
          "internalType": "struct XRC4907Storage.StudentDocs[]",
          "name": "",
          "type": "tuple[]"
        }
      ],
      "stateMutability": "view",
      "type": "function"
    },
    {
      "inputs": [
        {
          "internalType": "string",
          "name": "_domain",
          "type": "string"
        }
      ],
      "name": "getInstituteAddress",
      "outputs": [
        {
          "internalType": "address",
          "name": "",
          "type": "address"
        }
      ],
      "stateMutability": "view",
      "type": "function"
    },
    {
      "inputs": [
        {
          "internalType": "address",
          "name": "_instituteAddress",
          "type": "address"
        }
      ],
      "name": "getInstituteDetails",
      "outputs": [
        {
          "components": [
            {
              "internalType": "string",
              "name": "instituteName",
              "type": "string"
            },
            {
              "internalType": "string",
              "name": "instituteLocation",
              "type": "string"
            },
            {
              "internalType": "string",
              "name": "instituteDomain",
              "type": "string"
            },
            {
              "internalType": "bool",
              "name": "registered",
              "type": "bool"
            }
          ],
          "internalType": "struct KeepItSafe.Institute",
          "name": "",
          "type": "tuple"
        }
      ],
      "stateMutability": "view",
      "type": "function"
    },
    {
      "inputs": [
        {
          "internalType": "address",
          "name": "_studentAddress",
          "type": "address"
        }
      ],
      "name": "getStudentDetails",
      "outputs": [
        {
          "components": [
            {
              "internalType": "string",
              "name": "studentName",
              "type": "string"
            },
            {
              "internalType": "address",
              "name": "institueAddress",
              "type": "address"
            },
            {
              "internalType": "string",
              "name": "instituteDomain",
              "type": "string"
            },
            {
              "internalType": "bool",
              "name": "registered",
              "type": "bool"
            }
          ],
          "internalType": "struct KeepItSafe.Student",
          "name": "",
          "type": "tuple"
        }
      ],
      "stateMutability": "view",
      "type": "function"
    },
    {
      "inputs": [
        {
          "internalType": "uint256",
          "name": "_tokenId",
          "type": "uint256"
        }
      ],
      "name": "getStudentDocById",
      "outputs": [
        {
          "components": [
            {
              "internalType": "string",
              "name": "docType",
              "type": "string"
            },
            {
              "internalType": "string",
              "name": "ipfsHash",
              "type": "string"
            },
            {
              "internalType": "uint256",
              "name": "expiresIn",
              "type": "uint256"
            },
            {
              "internalType": "uint256",
              "name": "tokenId",
              "type": "uint256"
            },
            {
              "internalType": "address",
              "name": "user",
              "type": "address"
            }
          ],
          "internalType": "struct XRC4907Storage.StudentDocs",
          "name": "",
          "type": "tuple"
        }
      ],
      "stateMutability": "view",
      "type": "function"
    },
    {
      "inputs": [],
      "name": "getStudentDocs",
      "outputs": [
        {
          "components": [
            {
              "internalType": "string",
              "name": "docType",
              "type": "string"
            },
            {
              "internalType": "string",
              "name": "ipfsHash",
              "type": "string"
            },
            {
              "internalType": "uint256",
              "name": "expiresIn",
              "type": "uint256"
            },
            {
              "internalType": "uint256",
              "name": "tokenId",
              "type": "uint256"
            },
            {
              "internalType": "address",
              "name": "user",
              "type": "address"
            }
          ],
          "internalType": "struct XRC4907Storage.StudentDocs[]",
          "name": "",
          "type": "tuple[]"
        }
      ],
      "stateMutability": "view",
      "type": "function"
    },
    {
      "inputs": [],
      "name": "getYourRole",
      "outputs": [
        {
          "internalType": "enum KeepItSafe.Roles",
          "name": "",
          "type": "uint8"
        }
      ],
      "stateMutability": "view",
      "type": "function"
    },
    {
      "inputs": [
        {
          "internalType": "address",
          "name": "_student",
          "type": "address"
        }
      ],
      "name": "hasDocExpired",
      "outputs": [
        {
          "internalType": "bool",
          "name": "",
          "type": "bool"
        }
      ],
      "stateMutability": "nonpayable",
      "type": "function"
    },
    {
      "inputs": [
        {
          "internalType": "address",
          "name": "owner",
          "type": "address"
        },
        {
          "internalType": "address",
          "name": "operator",
          "type": "address"
        }
      ],
      "name": "isApprovedForAll",
      "outputs": [
        {
          "internalType": "bool",
          "name": "",
          "type": "bool"
        }
      ],
      "stateMutability": "view",
      "type": "function"
    },
    {
      "inputs": [
        {
          "internalType": "address",
          "name": "_owner",
          "type": "address"
        },
        {
          "internalType": "address",
          "name": "_to",
          "type": "address"
        },
        {
          "internalType": "string",
          "name": "_docType",
          "type": "string"
        },
        {
          "internalType": "string",
          "name": "_ipfsHash",
          "type": "string"
        },
        {
          "internalType": "uint64",
          "name": "_expiresIn",
          "type": "uint64"
        }
      ],
      "name": "mint",
      "outputs": [],
      "stateMutability": "nonpayable",
      "type": "function"
    },
    {
      "inputs": [],
      "name": "name",
      "outputs": [
        {
          "internalType": "string",
          "name": "",
          "type": "string"
        }
      ],
      "stateMutability": "view",
      "type": "function"
    },
    {
      "inputs": [
        {
          "internalType": "uint256",
          "name": "tokenId",
          "type": "uint256"
        }
      ],
      "name": "ownerOf",
      "outputs": [
        {
          "internalType": "address",
          "name": "",
          "type": "address"
        }
      ],
      "stateMutability": "view",
      "type": "function"
    },
    {
      "inputs": [
        {
          "internalType": "address",
          "name": "_studentAddress",
          "type": "address"
        },
        {
          "internalType": "string",
          "name": "_docType",
          "type": "string"
        }
      ],
      "name": "rejectDocumentRequest",
      "outputs": [],
      "stateMutability": "nonpayable",
      "type": "function"
    },
    {
      "inputs": [
        {
          "internalType": "address",
          "name": "_instituteAddress",
          "type": "address"
        },
        {
          "internalType": "string",
          "name": "_docType",
          "type": "string"
        }
      ],
      "name": "requestDocument",
      "outputs": [],
      "stateMutability": "nonpayable",
      "type": "function"
    },
    {
      "inputs": [
        {
          "internalType": "address",
          "name": "from",
          "type": "address"
        },
        {
          "internalType": "address",
          "name": "to",
          "type": "address"
        },
        {
          "internalType": "uint256",
          "name": "tokenId",
          "type": "uint256"
        }
      ],
      "name": "safeTransferFrom",
      "outputs": [],
      "stateMutability": "nonpayable",
      "type": "function"
    },
    {
      "inputs": [
        {
          "internalType": "address",
          "name": "from",
          "type": "address"
        },
        {
          "internalType": "address",
          "name": "to",
          "type": "address"
        },
        {
          "internalType": "uint256",
          "name": "tokenId",
          "type": "uint256"
        },
        {
          "internalType": "bytes",
          "name": "data",
          "type": "bytes"
        }
      ],
      "name": "safeTransferFrom",
      "outputs": [],
      "stateMutability": "nonpayable",
      "type": "function"
    },
    {
      "inputs": [
        {
          "internalType": "address",
          "name": "operator",
          "type": "address"
        },
        {
          "internalType": "bool",
          "name": "approved",
          "type": "bool"
        }
      ],
      "name": "setApprovalForAll",
      "outputs": [],
      "stateMutability": "nonpayable",
      "type": "function"
    },
    {
      "inputs": [
        {
          "internalType": "uint256",
          "name": "tokenId",
          "type": "uint256"
        },
        {
          "internalType": "address",
          "name": "_user",
          "type": "address"
        },
        {
          "internalType": "uint64",
          "name": "expires",
          "type": "uint64"
        }
      ],
      "name": "setUser",
      "outputs": [],
      "stateMutability": "nonpayable",
      "type": "function"
    },
    {
      "inputs": [
        {
          "internalType": "bytes4",
          "name": "interfaceId",
          "type": "bytes4"
        }
      ],
      "name": "supportsInterface",
      "outputs": [
        {
          "internalType": "bool",
          "name": "",
          "type": "bool"
        }
      ],
      "stateMutability": "view",
      "type": "function"
    },
    {
      "inputs": [],
      "name": "symbol",
      "outputs": [
        {
          "internalType": "string",
          "name": "",
          "type": "string"
        }
      ],
      "stateMutability": "view",
      "type": "function"
    },
    {
      "inputs": [],
      "name": "time",
      "outputs": [
        {
          "internalType": "uint256",
          "name": "",
          "type": "uint256"
        }
      ],
      "stateMutability": "view",
      "type": "function"
    },
    {
      "inputs": [],
      "name": "tokenIdCounter",
      "outputs": [
        {
          "internalType": "uint256",
          "name": "",
          "type": "uint256"
        }
      ],
      "stateMutability": "view",
      "type": "function"
    },
    {
      "inputs": [
        {
          "internalType": "uint256",
          "name": "tokenId",
          "type": "uint256"
        }
      ],
      "name": "tokenURI",
      "outputs": [
        {
          "internalType": "string",
          "name": "",
          "type": "string"
        }
      ],
      "stateMutability": "view",
      "type": "function"
    },
    {
      "inputs": [
        {
          "internalType": "address",
          "name": "from",
          "type": "address"
        },
        {
          "internalType": "address",
          "name": "to",
          "type": "address"
        },
        {
          "internalType": "uint256",
          "name": "tokenId",
          "type": "uint256"
        }
      ],
      "name": "transferFrom",
      "outputs": [],
      "stateMutability": "nonpayable",
      "type": "function"
    },
    {
      "inputs": [
        {
          "internalType": "uint256",
          "name": "tokenId",
          "type": "uint256"
        }
      ],
      "name": "userExpires",
      "outputs": [
        {
          "internalType": "uint256",
          "name": "",
          "type": "uint256"
        }
      ],
      "stateMutability": "view",
      "type": "function"
    },
    {
      "inputs": [
        {
          "internalType": "uint256",
          "name": "tokenId",
          "type": "uint256"
        }
      ],
      "name": "userOf",
      "outputs": [
        {
          "internalType": "address",
          "name": "",
          "type": "address"
        }
      ],
      "stateMutability": "view",
      "type": "function"
    }
  ],
  "bytecode": "0x60806040523480156200001157600080fd5b506040518060400160405280600a81526020017f4b656570497453616665000000000000000000000000000000000000000000008152506040518060400160405280600381526020017f4b6953000000000000000000000000000000000000000000000000000000000081525081600090816200008f91906200032c565b508060019081620000a191906200032c565b505050600160068190555062000413565b600081519050919050565b7f4e487b7100000000000000000000000000000000000000000000000000000000600052604160045260246000fd5b7f4e487b7100000000000000000000000000000000000000000000000000000000600052602260045260246000fd5b600060028204905060018216806200013457607f821691505b6020821081036200014a5762000149620000ec565b5b50919050565b60008190508160005260206000209050919050565b60006020601f8301049050919050565b600082821b905092915050565b600060088302620001b47fffffffffffffffffffffffffffffffffffffffffffffffffffffffffffffffff8262000175565b620001c0868362000175565b95508019841693508086168417925050509392505050565b6000819050919050565b6000819050919050565b60006200020d620002076200020184620001d8565b620001e2565b620001d8565b9050919050565b6000819050919050565b6200022983620001ec565b62000241620002388262000214565b84845462000182565b825550505050565b600090565b6200025862000249565b620002658184846200021e565b505050565b5b818110156200028d57620002816000826200024e565b6001810190506200026b565b5050565b601f821115620002dc57620002a68162000150565b620002b18462000165565b81016020851015620002c1578190505b620002d9620002d08562000165565b8301826200026a565b50505b505050565b600082821c905092915050565b60006200030160001984600802620002e1565b1980831691505092915050565b60006200031c8383620002ee565b9150826002028217905092915050565b6200033782620000b2565b67ffffffffffffffff811115620003535762000352620000bd565b5b6200035f82546200011b565b6200036c82828562000291565b600060209050601f831160018114620003a457600084156200038f578287015190505b6200039b85826200030e565b8655506200040b565b601f198416620003b48662000150565b60005b82811015620003de57848901518255600182019150602085019450602081019050620003b7565b86831015620003fe5784890151620003fa601f891682620002ee565b8355505b6001600288020188555050505b505050505050565b615fdd80620004236000396000f3fe608060405234801561001057600080fd5b50600436106102115760003560e01c80638fc88c4811610125578063c87b56dd116100ad578063d4085e3b1161007c578063d4085e3b1461065c578063e030565e1461068c578063e985e9c5146106a8578063fb2cbb88146106d8578063fde82a37146106f657610211565b8063c87b56dd146105ae578063d0b371bd146105de578063d16ce2811461060e578063d2fe04481461063e57610211565b80639fea70d5116100f45780639fea70d5146104fa578063a22cb46514610516578063b88d4fde14610532578063be569c101461054e578063c2f1f14a1461057e57610211565b80638fc88c481461047257806393c54034146104a257806395d89b41146104be57806398bdf6f5146104dc57610211565b806346510b85116101a857806376349c0d1161017757806376349c0d146103d057806386398f63146103ec578063884c607f1461041c5780638eedba95146104385780638f2fc3461461045457610211565b806346510b85146103225780634f8c57d1146103405780636352211e1461037057806370a08231146103a057610211565b806316ada547116101e457806316ada547146102b057806323b872dd146102ce5780632610e1d7146102ea57806342842e0e1461030657610211565b806301ffc9a71461021657806306fdde0314610246578063081812fc14610264578063095ea7b314610294575b600080fd5b610230600480360381019061022b91906147ca565b610726565b60405161023d9190614812565b60405180910390f35b61024e6107a0565b60405161025b91906148bd565b60405180910390f35b61027e60048036038101906102799190614915565b610832565b60405161028b9190614983565b60405180910390f35b6102ae60048036038101906102a991906149ca565b61084e565b005b6102b8610864565b6040516102c59190614a19565b60405180910390f35b6102e860048036038101906102e39190614a34565b61086c565b005b61030460048036038101906102ff9190614bbc565b6108da565b005b610320600480360381019061031b9190614a34565b610b9d565b005b61032a610bbd565b6040516103379190614ddd565b60405180910390f35b61035a60048036038101906103559190614dff565b611155565b6040516103679190614f58565b60405180910390f35b61038a60048036038101906103859190614915565b6113a7565b6040516103979190614983565b60405180910390f35b6103ba60048036038101906103b59190614dff565b6113b9565b6040516103c79190614a19565b60405180910390f35b6103ea60048036038101906103e59190614f7a565b611473565b005b61040660048036038101906104019190615005565b6117c6565b6040516104139190614983565b60405180910390f35b6104366004803603810190610431919061508e565b61180e565b005b610452600480360381019061044d9190615141565b611c38565b005b61045c611ef4565b6040516104699190615214565b60405180910390f35b61048c60048036038101906104879190614915565b611f48565b6040516104999190614a19565b60405180910390f35b6104bc60048036038101906104b79190615141565b611fae565b005b6104c6612290565b6040516104d391906148bd565b60405180910390f35b6104e4612322565b6040516104f19190614a19565b60405180910390f35b610514600480360381019061050f919061522f565b612328565b005b610530600480360381019061052b91906152fa565b612619565b005b61054c600480360381019061054791906153db565b61262f565b005b61056860048036038101906105639190614dff565b61264c565b6040516105759190614812565b60405180910390f35b61059860048036038101906105939190614915565b61274e565b6040516105a59190614983565b60405180910390f35b6105c860048036038101906105c39190614915565b6127bc565b6040516105d591906148bd565b60405180910390f35b6105f860048036038101906105f39190614dff565b6127ce565b60405161060591906154c8565b60405180910390f35b61062860048036038101906106239190614dff565b6129bc565b6040516106359190615638565b60405180910390f35b610646612cc7565b6040516106539190614ddd565b60405180910390f35b61067660048036038101906106719190614dff565b613075565b60405161068391906156cb565b60405180910390f35b6106a660048036038101906106a191906156ed565b61329f565b005b6106c260048036038101906106bd9190615740565b613312565b6040516106cf9190614812565b60405180910390f35b6106e06133a6565b6040516106ed9190615638565b60405180910390f35b610710600480360381019061070b9190614915565b61345f565b60405161071d91906157fd565b60405180910390f35b60007fad092b5c000000000000000000000000000000000000000000000000000000007bffffffffffffffffffffffffffffffffffffffffffffffffffffffff1916827bffffffffffffffffffffffffffffffffffffffffffffffffffffffff1916148061079957506107988261361a565b5b9050919050565b6060600080546107af9061584e565b80601f01602080910402602001604051908101604052809291908181526020018280546107db9061584e565b80156108285780601f106107fd57610100808354040283529160200191610828565b820191906000526020600020905b81548152906001019060200180831161080b57829003601f168201915b5050505050905090565b600061083d8261367b565b5061084782613703565b9050919050565b610860828261085b613740565b613748565b5050565b600042905090565b600115156009600083815260200190815260200160002060009054906101000a900460ff161515036108ca576040517ff528582f00000000000000000000000000000000000000000000000000000000815260040160405180910390fd5b6108d5838383610b9d565b505050565b60011515600c60003373ffffffffffffffffffffffffffffffffffffffff1673ffffffffffffffffffffffffffffffffffffffff16815260200190815260200160002060030160009054906101000a900460ff16151503610967576040517f084c8b4800000000000000000000000000000000000000000000000000000000815260040160405180910390fd5b600073ffffffffffffffffffffffffffffffffffffffff16600e8260405161098f91906158bb565b908152602001604051809103902060009054906101000a900473ffffffffffffffffffffffffffffffffffffffff1673ffffffffffffffffffffffffffffffffffffffff1614610a0b576040517fab1f95c700000000000000000000000000000000000000000000000000000000815260040160405180910390fd5b604051806080016040528084815260200183815260200182815260200160011515815250600c60003373ffffffffffffffffffffffffffffffffffffffff1673ffffffffffffffffffffffffffffffffffffffff1681526020019081526020016000206000820151816000019081610a839190615a7e565b506020820151816001019081610a999190615a7e565b506040820151816002019081610aaf9190615a7e565b5060608201518160030160006101000a81548160ff0219169083151502179055509050506001600b60003373ffffffffffffffffffffffffffffffffffffffff1673ffffffffffffffffffffffffffffffffffffffff16815260200190815260200160002060006101000a81548160ff02191690836002811115610b3657610b3561519d565b5b021790555033600e82604051610b4c91906158bb565b908152602001604051809103902060006101000a81548173ffffffffffffffffffffffffffffffffffffffff021916908373ffffffffffffffffffffffffffffffffffffffff160217905550505050565b610bb88383836040518060200160405280600081525061262f565b505050565b6060600080600090505b601060003373ffffffffffffffffffffffffffffffffffffffff1673ffffffffffffffffffffffffffffffffffffffff16815260200190815260200160002080549050811015610cef57600f6000601060003373ffffffffffffffffffffffffffffffffffffffff1673ffffffffffffffffffffffffffffffffffffffff1681526020019081526020016000208381548110610c6657610c65615b50565b5b9060005260206000200160009054906101000a900473ffffffffffffffffffffffffffffffffffffffff1673ffffffffffffffffffffffffffffffffffffffff1673ffffffffffffffffffffffffffffffffffffffff1681526020019081526020016000208054905082610cda9190615bae565b91508080610ce790615be2565b915050610bc7565b5060008167ffffffffffffffff811115610d0c57610d0b614a91565b5b604051908082528060200260200182016040528015610d4557816020015b610d32614676565b815260200190600190039081610d2a5790505b5090506000805b601060003373ffffffffffffffffffffffffffffffffffffffff1673ffffffffffffffffffffffffffffffffffffffff1681526020019081526020016000208054905081101561109a576000601060003373ffffffffffffffffffffffffffffffffffffffff1673ffffffffffffffffffffffffffffffffffffffff1681526020019081526020016000208281548110610de957610de8615b50565b5b9060005260206000200160009054906101000a900473ffffffffffffffffffffffffffffffffffffffff16905060005b600f60008373ffffffffffffffffffffffffffffffffffffffff1673ffffffffffffffffffffffffffffffffffffffff1681526020019081526020016000208054905081101561108557600f60008373ffffffffffffffffffffffffffffffffffffffff1673ffffffffffffffffffffffffffffffffffffffff1681526020019081526020016000208181548110610eb457610eb3615b50565b5b906000526020600020906003020160020160009054906101000a900460ff161561107257600f60008373ffffffffffffffffffffffffffffffffffffffff1673ffffffffffffffffffffffffffffffffffffffff1681526020019081526020016000208181548110610f2957610f28615b50565b5b90600052602060002090600302016040518060600160405290816000820160009054906101000a900473ffffffffffffffffffffffffffffffffffffffff1673ffffffffffffffffffffffffffffffffffffffff1673ffffffffffffffffffffffffffffffffffffffff168152602001600182018054610fa89061584e565b80601f0160208091040260200160405190810160405280929190818152602001828054610fd49061584e565b80156110215780601f10610ff657610100808354040283529160200191611021565b820191906000526020600020905b81548152906001019060200180831161100457829003601f168201915b505050505081526020016002820160009054906101000a900460ff16151515158152505085858151811061105857611057615b50565b5b6020026020010181905250838061106e90615be2565b9450505b808061107d90615be2565b915050610e19565b5050808061109290615be2565b915050610d4c565b5060008167ffffffffffffffff8111156110b7576110b6614a91565b5b6040519080825280602002602001820160405280156110f057816020015b6110dd614676565b8152602001906001900390816110d55790505b50905060005b8281101561114a5783818151811061111157611110615b50565b5b602002602001015182828151811061112c5761112b615b50565b5b6020026020010181905250808061114290615be2565b9150506110f6565b508094505050505090565b60606001600281111561116b5761116a61519d565b5b600b60003373ffffffffffffffffffffffffffffffffffffffff1673ffffffffffffffffffffffffffffffffffffffff16815260200190815260200160002060009054906101000a900460ff1660028111156111ca576111c961519d565b5b14611201576040517f39ba880400000000000000000000000000000000000000000000000000000000815260040160405180910390fd5b6000601060003373ffffffffffffffffffffffffffffffffffffffff1673ffffffffffffffffffffffffffffffffffffffff1681526020019081526020016000208054905067ffffffffffffffff81111561125f5761125e614a91565b5b60405190808252806020026020018201604052801561129857816020015b6112856146af565b81526020019060019003908161127d5790505b50905060005b601060003373ffffffffffffffffffffffffffffffffffffffff1673ffffffffffffffffffffffffffffffffffffffff1681526020019081526020016000208054905081101561139d5761136c601060003373ffffffffffffffffffffffffffffffffffffffff1673ffffffffffffffffffffffffffffffffffffffff168152602001908152602001600020828154811061133c5761133b615b50565b5b9060005260206000200160009054906101000a900473ffffffffffffffffffffffffffffffffffffffff166127ce565b82828151811061137f5761137e615b50565b5b6020026020010181905250808061139590615be2565b91505061129e565b5080915050919050565b60006113b28261367b565b9050919050565b60008073ffffffffffffffffffffffffffffffffffffffff168273ffffffffffffffffffffffffffffffffffffffff160361142c5760006040517f89c62b640000000000000000000000000000000000000000000000000000000081526004016114239190614983565b60405180910390fd5b600360008373ffffffffffffffffffffffffffffffffffffffff1673ffffffffffffffffffffffffffffffffffffffff168152602001908152602001600020549050919050565b60011515600d60003373ffffffffffffffffffffffffffffffffffffffff1673ffffffffffffffffffffffffffffffffffffffff16815260200190815260200160002060030160009054906101000a900460ff16151503611500576040517fd575adb800000000000000000000000000000000000000000000000000000000815260040160405180910390fd5b600160028111156115145761151361519d565b5b600b60003373ffffffffffffffffffffffffffffffffffffffff1673ffffffffffffffffffffffffffffffffffffffff16815260200190815260200160002060009054906101000a900460ff1660028111156115735761157261519d565b5b036115aa576040517fc5b7cc6300000000000000000000000000000000000000000000000000000000815260040160405180910390fd5b6002600b60003373ffffffffffffffffffffffffffffffffffffffff1673ffffffffffffffffffffffffffffffffffffffff16815260200190815260200160002060006101000a81548160ff0219169083600281111561160d5761160c61519d565b5b0217905550601060008373ffffffffffffffffffffffffffffffffffffffff1673ffffffffffffffffffffffffffffffffffffffff168152602001908152602001600020339080600181540180825580915050600190039060005260206000200160009091909190916101000a81548173ffffffffffffffffffffffffffffffffffffffff021916908373ffffffffffffffffffffffffffffffffffffffff16021790555060405180608001604052808481526020018373ffffffffffffffffffffffffffffffffffffffff16815260200182815260200160011515815250600d60003373ffffffffffffffffffffffffffffffffffffffff1673ffffffffffffffffffffffffffffffffffffffff16815260200190815260200160002060008201518160000190816117409190615a7e565b5060208201518160010160006101000a81548173ffffffffffffffffffffffffffffffffffffffff021916908373ffffffffffffffffffffffffffffffffffffffff160217905550604082015181600201908161179d9190615a7e565b5060608201518160030160006101000a81548160ff021916908315150217905550905050505050565b6000600e826040516117d891906158bb565b908152602001604051809103902060009054906101000a900473ffffffffffffffffffffffffffffffffffffffff169050919050565b600060065490506006600081548092919061182890615be2565b91905055506040518060a001604052808581526020018481526020018367ffffffffffffffff1681526020018281526020018773ffffffffffffffffffffffffffffffffffffffff1681525060076000838152602001908152602001600020600082015181600001908161189c9190615a7e565b5060208201518160010190816118b29190615a7e565b50604082015181600201556060820151816003015560808201518160040160006101000a81548173ffffffffffffffffffffffffffffffffffffffff021916908373ffffffffffffffffffffffffffffffffffffffff16021790555090505060008267ffffffffffffffff1603611b705761192d858261375a565b6119378184613853565b60016009600083815260200190815260200160002060006101000a81548160ff02191690831515021790555060405160200161197290615c76565b604051602081830303815290604052805190602001208460405160200161199991906158bb565b6040516020818303038152906040528051906020012003611a115780600860008873ffffffffffffffffffffffffffffffffffffffff1673ffffffffffffffffffffffffffffffffffffffff168152602001908152602001600020600060048110611a0757611a06615b50565b5b0181905550611b6b565b604051602001611a2090615cd7565b6040516020818303038152906040528051906020012084604051602001611a4791906158bb565b6040516020818303038152906040528051906020012003611abf5780600860008873ffffffffffffffffffffffffffffffffffffffff1673ffffffffffffffffffffffffffffffffffffffff168152602001908152602001600020600160048110611ab557611ab4615b50565b5b0181905550611b6a565b604051602001611ace90615d38565b6040516020818303038152906040528051906020012084604051602001611af591906158bb565b6040516020818303038152906040528051906020012003611b695780600860008873ffffffffffffffffffffffffffffffffffffffff1673ffffffffffffffffffffffffffffffffffffffff168152602001908152602001600020600260048110611b6357611b62615b50565b5b01819055505b5b5b611c30565b611b7a868261375a565b611b8581868461329f565b604051602001611b9490615d99565b6040516020818303038152906040528051906020012084604051602001611bbb91906158bb565b6040516020818303038152906040528051906020012003611c2f5780600860008773ffffffffffffffffffffffffffffffffffffffff1673ffffffffffffffffffffffffffffffffffffffff168152602001908152602001600020600360048110611c2957611c28615b50565b5b01819055505b5b505050505050565b60016002811115611c4c57611c4b61519d565b5b600b60003373ffffffffffffffffffffffffffffffffffffffff1673ffffffffffffffffffffffffffffffffffffffff16815260200190815260200160002060009054906101000a900460ff166002811115611cab57611caa61519d565b5b14611ce2576040517f39ba880400000000000000000000000000000000000000000000000000000000815260040160405180910390fd5b60005b600f60008473ffffffffffffffffffffffffffffffffffffffff1673ffffffffffffffffffffffffffffffffffffffff16815260200190815260200160002080549050811015611eef57600f60008473ffffffffffffffffffffffffffffffffffffffff1673ffffffffffffffffffffffffffffffffffffffff1681526020019081526020016000208181548110611d8057611d7f615b50565b5b906000526020600020906003020160020160009054906101000a900460ff168015611e57575081604051602001611db791906158bb565b60405160208183030381529060405280519060200120600f60008573ffffffffffffffffffffffffffffffffffffffff1673ffffffffffffffffffffffffffffffffffffffff1681526020019081526020016000208281548110611e1e57611e1d615b50565b5b9060005260206000209060030201600101604051602001611e3f9190615e31565b60405160208183030381529060405280519060200120145b15611edc576000600f60008573ffffffffffffffffffffffffffffffffffffffff1673ffffffffffffffffffffffffffffffffffffffff1681526020019081526020016000208281548110611eaf57611eae615b50565b5b906000526020600020906003020160020160006101000a81548160ff021916908315150217905550611eef565b8080611ee790615be2565b915050611ce5565b505050565b6000600b60003373ffffffffffffffffffffffffffffffffffffffff1673ffffffffffffffffffffffffffffffffffffffff16815260200190815260200160002060009054906101000a900460ff16905090565b600042600760008481526020019081526020016000206002015410611f855760076000838152602001908152602001600020600201549050611fa9565b7fffffffffffffffffffffffffffffffffffffffffffffffffffffffffffffffff90505b919050565b600280811115611fc157611fc061519d565b5b600b60003373ffffffffffffffffffffffffffffffffffffffff1673ffffffffffffffffffffffffffffffffffffffff16815260200190815260200160002060009054906101000a900460ff1660028111156120205761201f61519d565b5b14612057576040517f777ab36c00000000000000000000000000000000000000000000000000000000815260040160405180910390fd5b60001515600c60008473ffffffffffffffffffffffffffffffffffffffff1673ffffffffffffffffffffffffffffffffffffffff16815260200190815260200160002060030160009054906101000a900460ff161515036120e4576040517f57304c6600000000000000000000000000000000000000000000000000000000815260040160405180910390fd5b60001515600d60003373ffffffffffffffffffffffffffffffffffffffff1673ffffffffffffffffffffffffffffffffffffffff16815260200190815260200160002060030160009054906101000a900460ff16151503612171576040517ff46ab27d00000000000000000000000000000000000000000000000000000000815260040160405180910390fd5b600f60003373ffffffffffffffffffffffffffffffffffffffff1673ffffffffffffffffffffffffffffffffffffffff16815260200190815260200160002060405180606001604052803373ffffffffffffffffffffffffffffffffffffffff16815260200183815260200160011515815250908060018154018082558091505060019003906000526020600020906003020160009091909190915060008201518160000160006101000a81548173ffffffffffffffffffffffffffffffffffffffff021916908373ffffffffffffffffffffffffffffffffffffffff16021790555060208201518160010190816122699190615a7e565b5060408201518160020160006101000a81548160ff02191690831515021790555050505050565b60606001805461229f9061584e565b80601f01602080910402602001604051908101604052809291908181526020018280546122cb9061584e565b80156123185780601f106122ed57610100808354040283529160200191612318565b820191906000526020600020905b8154815290600101906020018083116122fb57829003601f168201915b5050505050905090565b60065481565b6001600281111561233c5761233b61519d565b5b600b60003373ffffffffffffffffffffffffffffffffffffffff1673ffffffffffffffffffffffffffffffffffffffff16815260200190815260200160002060009054906101000a900460ff16600281111561239b5761239a61519d565b5b146123d2576040517f39ba880400000000000000000000000000000000000000000000000000000000815260040160405180910390fd5b60005b600f60008673ffffffffffffffffffffffffffffffffffffffff1673ffffffffffffffffffffffffffffffffffffffff168152602001908152602001600020805490508110156125df57600f60008673ffffffffffffffffffffffffffffffffffffffff1673ffffffffffffffffffffffffffffffffffffffff16815260200190815260200160002081815481106124705761246f615b50565b5b906000526020600020906003020160020160009054906101000a900460ff1680156125475750836040516020016124a791906158bb565b60405160208183030381529060405280519060200120600f60008773ffffffffffffffffffffffffffffffffffffffff1673ffffffffffffffffffffffffffffffffffffffff168152602001908152602001600020828154811061250e5761250d615b50565b5b906000526020600020906003020160010160405160200161252f9190615e31565b60405160208183030381529060405280519060200120145b156125cc576000600f60008773ffffffffffffffffffffffffffffffffffffffff1673ffffffffffffffffffffffffffffffffffffffff168152602001908152602001600020828154811061259f5761259e615b50565b5b906000526020600020906003020160020160006101000a81548160ff0219169083151502179055506125df565b80806125d790615be2565b9150506123d5565b5060008167ffffffffffffffff16036126055761260084858585600061180e565b612613565b612612338585858561180e565b5b50505050565b61262b612624613740565b83836138af565b5050565b61263a84848461086c565b61264684848484613a1e565b50505050565b600080600860008473ffffffffffffffffffffffffffffffffffffffff1673ffffffffffffffffffffffffffffffffffffffff1681526020019081526020016000206003600481106126a1576126a0615b50565b5b015490508273ffffffffffffffffffffffffffffffffffffffff166126c58261274e565b73ffffffffffffffffffffffffffffffffffffffff1603612743576000600860008573ffffffffffffffffffffffffffffffffffffffff1673ffffffffffffffffffffffffffffffffffffffff16815260200190815260200160002060036004811061273457612733615b50565b5b01819055506001915050612749565b60009150505b919050565b6000426007600084815260200190815260200160002060020154106127ab576007600083815260200190815260200160002060040160009054906101000a900473ffffffffffffffffffffffffffffffffffffffff1690506127b7565b6127b4826113a7565b90505b919050565b60606127c782613bd5565b9050919050565b6127d66146af565b600d60008373ffffffffffffffffffffffffffffffffffffffff1673ffffffffffffffffffffffffffffffffffffffff1681526020019081526020016000206040518060800160405290816000820180546128309061584e565b80601f016020809104026020016040519081016040528092919081815260200182805461285c9061584e565b80156128a95780601f1061287e576101008083540402835291602001916128a9565b820191906000526020600020905b81548152906001019060200180831161288c57829003601f168201915b505050505081526020016001820160009054906101000a900473ffffffffffffffffffffffffffffffffffffffff1673ffffffffffffffffffffffffffffffffffffffff1673ffffffffffffffffffffffffffffffffffffffff1681526020016002820180546129189061584e565b80601f01602080910402602001604051908101604052809291908181526020018280546129449061584e565b80156129915780601f1061296657610100808354040283529160200191612991565b820191906000526020600020905b81548152906001019060200180831161297457829003601f168201915b505050505081526020016003820160009054906101000a900460ff1615151515815250509050919050565b60606000600467ffffffffffffffff8111156129db576129da614a91565b5b604051908082528060200260200182016040528015612a1457816020015b612a016146ef565b8152602001906001900390816129f95790505b5090506000805b6004811015612cbc576000600860008773ffffffffffffffffffffffffffffffffffffffff1673ffffffffffffffffffffffffffffffffffffffff1681526020019081526020016000208260048110612a7757612a76615b50565b5b015414612ca95760076000600860008873ffffffffffffffffffffffffffffffffffffffff1673ffffffffffffffffffffffffffffffffffffffff1681526020019081526020016000208360048110612ad357612ad2615b50565b5b015481526020019081526020016000206040518060a0016040529081600082018054612afe9061584e565b80601f0160208091040260200160405190810160405280929190818152602001828054612b2a9061584e565b8015612b775780601f10612b4c57610100808354040283529160200191612b77565b820191906000526020600020905b815481529060010190602001808311612b5a57829003601f168201915b50505050508152602001600182018054612b909061584e565b80601f0160208091040260200160405190810160405280929190818152602001828054612bbc9061584e565b8015612c095780601f10612bde57610100808354040283529160200191612c09565b820191906000526020600020905b815481529060010190602001808311612bec57829003601f168201915b5050505050815260200160028201548152602001600382015481526020016004820160009054906101000a900473ffffffffffffffffffffffffffffffffffffffff1673ffffffffffffffffffffffffffffffffffffffff1673ffffffffffffffffffffffffffffffffffffffff1681525050838381518110612c8f57612c8e615b50565b5b60200260200101819052508180612ca590615be2565b9250505b8080612cb490615be2565b915050612a1b565b508192505050919050565b6060600280811115612cdc57612cdb61519d565b5b600b60003373ffffffffffffffffffffffffffffffffffffffff1673ffffffffffffffffffffffffffffffffffffffff16815260200190815260200160002060009054906101000a900460ff166002811115612d3b57612d3a61519d565b5b14612d72576040517f777ab36c00000000000000000000000000000000000000000000000000000000815260040160405180910390fd5b6000600f60003373ffffffffffffffffffffffffffffffffffffffff1673ffffffffffffffffffffffffffffffffffffffff1681526020019081526020016000208054905067ffffffffffffffff811115612dd057612dcf614a91565b5b604051908082528060200260200182016040528015612e0957816020015b612df6614676565b815260200190600190039081612dee5790505b50905060005b600f60003373ffffffffffffffffffffffffffffffffffffffff1673ffffffffffffffffffffffffffffffffffffffff1681526020019081526020016000208054905081101561306d57600f60003373ffffffffffffffffffffffffffffffffffffffff1673ffffffffffffffffffffffffffffffffffffffff1681526020019081526020016000208181548110612eaa57612ea9615b50565b5b906000526020600020906003020160020160009054906101000a900460ff161561305a57600f60003373ffffffffffffffffffffffffffffffffffffffff1673ffffffffffffffffffffffffffffffffffffffff1681526020019081526020016000208181548110612f1f57612f1e615b50565b5b90600052602060002090600302016040518060600160405290816000820160009054906101000a900473ffffffffffffffffffffffffffffffffffffffff1673ffffffffffffffffffffffffffffffffffffffff1673ffffffffffffffffffffffffffffffffffffffff168152602001600182018054612f9e9061584e565b80601f0160208091040260200160405190810160405280929190818152602001828054612fca9061584e565b80156130175780601f10612fec57610100808354040283529160200191613017565b820191906000526020600020905b815481529060010190602001808311612ffa57829003601f168201915b505050505081526020016002820160009054906101000a900460ff16151515158152505082828151811061304e5761304d615b50565b5b60200260200101819052505b808061306590615be2565b915050612e0f565b508091505090565b61307d614734565b600c60008373ffffffffffffffffffffffffffffffffffffffff1673ffffffffffffffffffffffffffffffffffffffff1681526020019081526020016000206040518060800160405290816000820180546130d79061584e565b80601f01602080910402602001604051908101604052809291908181526020018280546131039061584e565b80156131505780601f1061312557610100808354040283529160200191613150565b820191906000526020600020905b81548152906001019060200180831161313357829003601f168201915b505050505081526020016001820180546131699061584e565b80601f01602080910402602001604051908101604052809291908181526020018280546131959061584e565b80156131e25780601f106131b7576101008083540402835291602001916131e2565b820191906000526020600020905b8154815290600101906020018083116131c557829003601f168201915b505050505081526020016002820180546131fb9061584e565b80601f01602080910402602001604051908101604052809291908181526020018280546132279061584e565b80156132745780601f1061324957610100808354040283529160200191613274565b820191906000526020600020905b81548152906001019060200180831161325757829003601f168201915b505050505081526020016003820160009054906101000a900460ff1615151515815250509050919050565b6000600760008581526020019081526020016000209050828160040160006101000a81548173ffffffffffffffffffffffffffffffffffffffff021916908373ffffffffffffffffffffffffffffffffffffffff1602179055508167ffffffffffffffff16816002018190555050505050565b6000600560008473ffffffffffffffffffffffffffffffffffffffff1673ffffffffffffffffffffffffffffffffffffffff16815260200190815260200160002060008373ffffffffffffffffffffffffffffffffffffffff1673ffffffffffffffffffffffffffffffffffffffff16815260200190815260200160002060009054906101000a900460ff16905092915050565b60606002808111156133bb576133ba61519d565b5b600b60003373ffffffffffffffffffffffffffffffffffffffff1673ffffffffffffffffffffffffffffffffffffffff16815260200190815260200160002060009054906101000a900460ff16600281111561341a5761341961519d565b5b14613451576040517f777ab36c00000000000000000000000000000000000000000000000000000000815260040160405180910390fd5b61345a336129bc565b905090565b6134676146ef565b600760008381526020019081526020016000206040518060a00160405290816000820180546134959061584e565b80601f01602080910402602001604051908101604052809291908181526020018280546134c19061584e565b801561350e5780601f106134e35761010080835404028352916020019161350e565b820191906000526020600020905b8154815290600101906020018083116134f157829003601f168201915b505050505081526020016001820180546135279061584e565b80601f01602080910402602001604051908101604052809291908181526020018280546135539061584e565b80156135a05780601f10613575576101008083540402835291602001916135a0565b820191906000526020600020905b81548152906001019060200180831161358357829003601f168201915b5050505050815260200160028201548152602001600382015481526020016004820160009054906101000a900473ffffffffffffffffffffffffffffffffffffffff1673ffffffffffffffffffffffffffffffffffffffff1673ffffffffffffffffffffffffffffffffffffffff16815250509050919050565b6000634906490660e01b7bffffffffffffffffffffffffffffffffffffffffffffffffffffffff1916827bffffffffffffffffffffffffffffffffffffffffffffffffffffffff19161480613674575061367382613ce8565b5b9050919050565b60008061368783613dca565b9050600073ffffffffffffffffffffffffffffffffffffffff168173ffffffffffffffffffffffffffffffffffffffff16036136fa57826040517f7e2732890000000000000000000000000000000000000000000000000000000081526004016136f19190614a19565b60405180910390fd5b80915050919050565b60006004600083815260200190815260200160002060009054906101000a900473ffffffffffffffffffffffffffffffffffffffff169050919050565b600033905090565b6137558383836001613e07565b505050565b600073ffffffffffffffffffffffffffffffffffffffff168273ffffffffffffffffffffffffffffffffffffffff16036137cc5760006040517f64a0ae920000000000000000000000000000000000000000000000000000000081526004016137c39190614983565b60405180910390fd5b60006137da83836000613fcc565b9050600073ffffffffffffffffffffffffffffffffffffffff168173ffffffffffffffffffffffffffffffffffffffff161461384e5760006040517f73c6ac6e0000000000000000000000000000000000000000000000000000000081526004016138459190614983565b60405180910390fd5b505050565b80600a600084815260200190815260200160002090816138739190615a7e565b507ff8e1a15aba9398e019f0b49df1a4fde98ee17ae345cb5f6b5e2c27f5033e8ce7826040516138a39190614a19565b60405180910390a15050565b600073ffffffffffffffffffffffffffffffffffffffff168273ffffffffffffffffffffffffffffffffffffffff160361392057816040517f5b08ba180000000000000000000000000000000000000000000000000000000081526004016139179190614983565b60405180910390fd5b80600560008573ffffffffffffffffffffffffffffffffffffffff1673ffffffffffffffffffffffffffffffffffffffff16815260200190815260200160002060008473ffffffffffffffffffffffffffffffffffffffff1673ffffffffffffffffffffffffffffffffffffffff16815260200190815260200160002060006101000a81548160ff0219169083151502179055508173ffffffffffffffffffffffffffffffffffffffff168373ffffffffffffffffffffffffffffffffffffffff167f17307eab39ab6107e8899845ad3d59bd9653f200f220920489ca2b5937696c3183604051613a119190614812565b60405180910390a3505050565b60008373ffffffffffffffffffffffffffffffffffffffff163b1115613bcf578273ffffffffffffffffffffffffffffffffffffffff1663150b7a02613a62613740565b8685856040518563ffffffff1660e01b8152600401613a849493929190615e9d565b6020604051808303816000875af1925050508015613ac057506040513d601f19601f82011682018060405250810190613abd9190615efe565b60015b613b44573d8060008114613af0576040519150601f19603f3d011682016040523d82523d6000602084013e613af5565b606091505b506000815103613b3c57836040517f64a0ae92000000000000000000000000000000000000000000000000000000008152600401613b339190614983565b60405180910390fd5b805181602001fd5b63150b7a0260e01b7bffffffffffffffffffffffffffffffffffffffffffffffffffffffff1916817bffffffffffffffffffffffffffffffffffffffffffffffffffffffff191614613bcd57836040517f64a0ae92000000000000000000000000000000000000000000000000000000008152600401613bc49190614983565b60405180910390fd5b505b50505050565b6060613be08261367b565b506000600a60008481526020019081526020016000208054613c019061584e565b80601f0160208091040260200160405190810160405280929190818152602001828054613c2d9061584e565b8015613c7a5780601f10613c4f57610100808354040283529160200191613c7a565b820191906000526020600020905b815481529060010190602001808311613c5d57829003601f168201915b505050505090506000613c8b6141e6565b90506000815103613ca0578192505050613ce3565b600082511115613cd5578082604051602001613cbd929190615f2b565b60405160208183030381529060405292505050613ce3565b613cde846141fd565b925050505b919050565b60007f80ac58cd000000000000000000000000000000000000000000000000000000007bffffffffffffffffffffffffffffffffffffffffffffffffffffffff1916827bffffffffffffffffffffffffffffffffffffffffffffffffffffffff19161480613db357507f5b5e139f000000000000000000000000000000000000000000000000000000007bffffffffffffffffffffffffffffffffffffffffffffffffffffffff1916827bffffffffffffffffffffffffffffffffffffffffffffffffffffffff1916145b80613dc35750613dc282614266565b5b9050919050565b60006002600083815260200190815260200160002060009054906101000a900473ffffffffffffffffffffffffffffffffffffffff169050919050565b8080613e405750600073ffffffffffffffffffffffffffffffffffffffff168273ffffffffffffffffffffffffffffffffffffffff1614155b15613f74576000613e508461367b565b9050600073ffffffffffffffffffffffffffffffffffffffff168373ffffffffffffffffffffffffffffffffffffffff1614158015613ebb57508273ffffffffffffffffffffffffffffffffffffffff168173ffffffffffffffffffffffffffffffffffffffff1614155b8015613ece5750613ecc8184613312565b155b15613f1057826040517fa9fbf51f000000000000000000000000000000000000000000000000000000008152600401613f079190614983565b60405180910390fd5b8115613f7257838573ffffffffffffffffffffffffffffffffffffffff168273ffffffffffffffffffffffffffffffffffffffff167f8c5be1e5ebec7d5bd14f71427d1e84f3dd0314c0f7b2291e5b200ac8c7c3b92560405160405180910390a45b505b836004600085815260200190815260200160002060006101000a81548173ffffffffffffffffffffffffffffffffffffffff021916908373ffffffffffffffffffffffffffffffffffffffff16021790555050505050565b600080613fd884613dca565b9050600073ffffffffffffffffffffffffffffffffffffffff168373ffffffffffffffffffffffffffffffffffffffff161461401a576140198184866142d0565b5b600073ffffffffffffffffffffffffffffffffffffffff168173ffffffffffffffffffffffffffffffffffffffff16146140ab5761405c600085600080613e07565b6001600360008373ffffffffffffffffffffffffffffffffffffffff1673ffffffffffffffffffffffffffffffffffffffff168152602001908152602001600020600082825403925050819055505b600073ffffffffffffffffffffffffffffffffffffffff168573ffffffffffffffffffffffffffffffffffffffff161461412e576001600360008773ffffffffffffffffffffffffffffffffffffffff1673ffffffffffffffffffffffffffffffffffffffff168152602001908152602001600020600082825401925050819055505b846002600086815260200190815260200160002060006101000a81548173ffffffffffffffffffffffffffffffffffffffff021916908373ffffffffffffffffffffffffffffffffffffffff160217905550838573ffffffffffffffffffffffffffffffffffffffff168273ffffffffffffffffffffffffffffffffffffffff167fddf252ad1be2c89b69c2b068fc378daa952ba7f163c4a11628f55a4df523b3ef60405160405180910390a4809150509392505050565b606060405180602001604052806000815250905090565b60606142088261367b565b5060006142136141e6565b90506000815111614233576040518060200160405280600081525061425e565b8061423d84614394565b60405160200161424e929190615f2b565b6040516020818303038152906040525b915050919050565b60007f01ffc9a7000000000000000000000000000000000000000000000000000000007bffffffffffffffffffffffffffffffffffffffffffffffffffffffff1916827bffffffffffffffffffffffffffffffffffffffffffffffffffffffff1916149050919050565b6142db838383614462565b61438f57600073ffffffffffffffffffffffffffffffffffffffff168373ffffffffffffffffffffffffffffffffffffffff160361435057806040517f7e2732890000000000000000000000000000000000000000000000000000000081526004016143479190614a19565b60405180910390fd5b81816040517f177e802f000000000000000000000000000000000000000000000000000000008152600401614386929190615f4f565b60405180910390fd5b505050565b6060600060016143a384614523565b01905060008167ffffffffffffffff8111156143c2576143c1614a91565b5b6040519080825280601f01601f1916602001820160405280156143f45781602001600182028036833780820191505090505b509050600082602001820190505b600115614457578080600190039150507f3031323334353637383961626364656600000000000000000000000000000000600a86061a8153600a858161444b5761444a615f78565b5b04945060008503614402575b819350505050919050565b60008073ffffffffffffffffffffffffffffffffffffffff168373ffffffffffffffffffffffffffffffffffffffff161415801561451a57508273ffffffffffffffffffffffffffffffffffffffff168473ffffffffffffffffffffffffffffffffffffffff1614806144db57506144da8484613312565b5b8061451957508273ffffffffffffffffffffffffffffffffffffffff1661450183613703565b73ffffffffffffffffffffffffffffffffffffffff16145b5b90509392505050565b600080600090507a184f03e93ff9f4daa797ed6e38ed64bf6a1f0100000000000000008310614581577a184f03e93ff9f4daa797ed6e38ed64bf6a1f010000000000000000838161457757614576615f78565b5b0492506040810190505b6d04ee2d6d415b85acef810000000083106145be576d04ee2d6d415b85acef810000000083816145b4576145b3615f78565b5b0492506020810190505b662386f26fc1000083106145ed57662386f26fc1000083816145e3576145e2615f78565b5b0492506010810190505b6305f5e1008310614616576305f5e100838161460c5761460b615f78565b5b0492506008810190505b612710831061463b57612710838161463157614630615f78565b5b0492506004810190505b6064831061465e576064838161465457614653615f78565b5b0492506002810190505b600a831061466d576001810190505b80915050919050565b6040518060600160405280600073ffffffffffffffffffffffffffffffffffffffff168152602001606081526020016000151581525090565b604051806080016040528060608152602001600073ffffffffffffffffffffffffffffffffffffffff168152602001606081526020016000151581525090565b6040518060a0016040528060608152602001606081526020016000815260200160008152602001600073ffffffffffffffffffffffffffffffffffffffff1681525090565b60405180608001604052806060815260200160608152602001606081526020016000151581525090565b6000604051905090565b600080fd5b600080fd5b60007fffffffff0000000000000000000000000000000000000000000000000000000082169050919050565b6147a781614772565b81146147b257600080fd5b50565b6000813590506147c48161479e565b92915050565b6000602082840312156147e0576147df614768565b5b60006147ee848285016147b5565b91505092915050565b60008115159050919050565b61480c816147f7565b82525050565b60006020820190506148276000830184614803565b92915050565b600081519050919050565b600082825260208201905092915050565b60005b8381101561486757808201518184015260208101905061484c565b60008484015250505050565b6000601f19601f8301169050919050565b600061488f8261482d565b6148998185614838565b93506148a9818560208601614849565b6148b281614873565b840191505092915050565b600060208201905081810360008301526148d78184614884565b905092915050565b6000819050919050565b6148f2816148df565b81146148fd57600080fd5b50565b60008135905061490f816148e9565b92915050565b60006020828403121561492b5761492a614768565b5b600061493984828501614900565b91505092915050565b600073ffffffffffffffffffffffffffffffffffffffff82169050919050565b600061496d82614942565b9050919050565b61497d81614962565b82525050565b60006020820190506149986000830184614974565b92915050565b6149a781614962565b81146149b257600080fd5b50565b6000813590506149c48161499e565b92915050565b600080604083850312156149e1576149e0614768565b5b60006149ef858286016149b5565b9250506020614a0085828601614900565b9150509250929050565b614a13816148df565b82525050565b6000602082019050614a2e6000830184614a0a565b92915050565b600080600060608486031215614a4d57614a4c614768565b5b6000614a5b868287016149b5565b9350506020614a6c868287016149b5565b9250506040614a7d86828701614900565b9150509250925092565b600080fd5b600080fd5b7f4e487b7100000000000000000000000000000000000000000000000000000000600052604160045260246000fd5b614ac982614873565b810181811067ffffffffffffffff82111715614ae857614ae7614a91565b5b80604052505050565b6000614afb61475e565b9050614b078282614ac0565b919050565b600067ffffffffffffffff821115614b2757614b26614a91565b5b614b3082614873565b9050602081019050919050565b82818337600083830152505050565b6000614b5f614b5a84614b0c565b614af1565b905082815260208101848484011115614b7b57614b7a614a8c565b5b614b86848285614b3d565b509392505050565b600082601f830112614ba357614ba2614a87565b5b8135614bb3848260208601614b4c565b91505092915050565b600080600060608486031215614bd557614bd4614768565b5b600084013567ffffffffffffffff811115614bf357614bf261476d565b5b614bff86828701614b8e565b935050602084013567ffffffffffffffff811115614c2057614c1f61476d565b5b614c2c86828701614b8e565b925050604084013567ffffffffffffffff811115614c4d57614c4c61476d565b5b614c5986828701614b8e565b9150509250925092565b600081519050919050565b600082825260208201905092915050565b6000819050602082019050919050565b614c9881614962565b82525050565b600082825260208201905092915050565b6000614cba8261482d565b614cc48185614c9e565b9350614cd4818560208601614849565b614cdd81614873565b840191505092915050565b614cf1816147f7565b82525050565b6000606083016000830151614d0f6000860182614c8f565b5060208301518482036020860152614d278282614caf565b9150506040830151614d3c6040860182614ce8565b508091505092915050565b6000614d538383614cf7565b905092915050565b6000602082019050919050565b6000614d7382614c63565b614d7d8185614c6e565b935083602082028501614d8f85614c7f565b8060005b85811015614dcb5784840389528151614dac8582614d47565b9450614db783614d5b565b925060208a01995050600181019050614d93565b50829750879550505050505092915050565b60006020820190508181036000830152614df78184614d68565b905092915050565b600060208284031215614e1557614e14614768565b5b6000614e23848285016149b5565b91505092915050565b600081519050919050565b600082825260208201905092915050565b6000819050602082019050919050565b60006080830160008301518482036000860152614e758282614caf565b9150506020830151614e8a6020860182614c8f565b5060408301518482036040860152614ea28282614caf565b9150506060830151614eb76060860182614ce8565b508091505092915050565b6000614ece8383614e58565b905092915050565b6000602082019050919050565b6000614eee82614e2c565b614ef88185614e37565b935083602082028501614f0a85614e48565b8060005b85811015614f465784840389528151614f278582614ec2565b9450614f3283614ed6565b925060208a01995050600181019050614f0e565b50829750879550505050505092915050565b60006020820190508181036000830152614f728184614ee3565b905092915050565b600080600060608486031215614f9357614f92614768565b5b600084013567ffffffffffffffff811115614fb157614fb061476d565b5b614fbd86828701614b8e565b9350506020614fce868287016149b5565b925050604084013567ffffffffffffffff811115614fef57614fee61476d565b5b614ffb86828701614b8e565b9150509250925092565b60006020828403121561501b5761501a614768565b5b600082013567ffffffffffffffff8111156150395761503861476d565b5b61504584828501614b8e565b91505092915050565b600067ffffffffffffffff82169050919050565b61506b8161504e565b811461507657600080fd5b50565b60008135905061508881615062565b92915050565b600080600080600060a086880312156150aa576150a9614768565b5b60006150b8888289016149b5565b95505060206150c9888289016149b5565b945050604086013567ffffffffffffffff8111156150ea576150e961476d565b5b6150f688828901614b8e565b935050606086013567ffffffffffffffff8111156151175761511661476d565b5b61512388828901614b8e565b925050608061513488828901615079565b9150509295509295909350565b6000806040838503121561515857615157614768565b5b6000615166858286016149b5565b925050602083013567ffffffffffffffff8111156151875761518661476d565b5b61519385828601614b8e565b9150509250929050565b7f4e487b7100000000000000000000000000000000000000000000000000000000600052602160045260246000fd5b600381106151dd576151dc61519d565b5b50565b60008190506151ee826151cc565b919050565b60006151fe826151e0565b9050919050565b61520e816151f3565b82525050565b60006020820190506152296000830184615205565b92915050565b6000806000806080858703121561524957615248614768565b5b6000615257878288016149b5565b945050602085013567ffffffffffffffff8111156152785761527761476d565b5b61528487828801614b8e565b935050604085013567ffffffffffffffff8111156152a5576152a461476d565b5b6152b187828801614b8e565b92505060606152c287828801615079565b91505092959194509250565b6152d7816147f7565b81146152e257600080fd5b50565b6000813590506152f4816152ce565b92915050565b6000806040838503121561531157615310614768565b5b600061531f858286016149b5565b9250506020615330858286016152e5565b9150509250929050565b600067ffffffffffffffff82111561535557615354614a91565b5b61535e82614873565b9050602081019050919050565b600061537e6153798461533a565b614af1565b90508281526020810184848401111561539a57615399614a8c565b5b6153a5848285614b3d565b509392505050565b600082601f8301126153c2576153c1614a87565b5b81356153d284826020860161536b565b91505092915050565b600080600080608085870312156153f5576153f4614768565b5b6000615403878288016149b5565b9450506020615414878288016149b5565b935050604061542587828801614900565b925050606085013567ffffffffffffffff8111156154465761544561476d565b5b615452878288016153ad565b91505092959194509250565b6000608083016000830151848203600086015261547b8282614caf565b91505060208301516154906020860182614c8f565b50604083015184820360408601526154a88282614caf565b91505060608301516154bd6060860182614ce8565b508091505092915050565b600060208201905081810360008301526154e2818461545e565b905092915050565b600081519050919050565b600082825260208201905092915050565b6000819050602082019050919050565b61551f816148df565b82525050565b600060a08301600083015184820360008601526155428282614caf565b9150506020830151848203602086015261555c8282614caf565b91505060408301516155716040860182615516565b5060608301516155846060860182615516565b5060808301516155976080860182614c8f565b508091505092915050565b60006155ae8383615525565b905092915050565b6000602082019050919050565b60006155ce826154ea565b6155d881856154f5565b9350836020820285016155ea85615506565b8060005b85811015615626578484038952815161560785826155a2565b9450615612836155b6565b925060208a019950506001810190506155ee565b50829750879550505050505092915050565b6000602082019050818103600083015261565281846155c3565b905092915050565b600060808301600083015184820360008601526156778282614caf565b915050602083015184820360208601526156918282614caf565b915050604083015184820360408601526156ab8282614caf565b91505060608301516156c06060860182614ce8565b508091505092915050565b600060208201905081810360008301526156e5818461565a565b905092915050565b60008060006060848603121561570657615705614768565b5b600061571486828701614900565b9350506020615725868287016149b5565b925050604061573686828701615079565b9150509250925092565b6000806040838503121561575757615756614768565b5b6000615765858286016149b5565b9250506020615776858286016149b5565b9150509250929050565b600060a083016000830151848203600086015261579d8282614caf565b915050602083015184820360208601526157b78282614caf565b91505060408301516157cc6040860182615516565b5060608301516157df6060860182615516565b5060808301516157f26080860182614c8f565b508091505092915050565b600060208201905081810360008301526158178184615780565b905092915050565b7f4e487b7100000000000000000000000000000000000000000000000000000000600052602260045260246000fd5b6000600282049050600182168061586657607f821691505b6020821081036158795761587861581f565b5b50919050565b600081905092915050565b60006158958261482d565b61589f818561587f565b93506158af818560208601614849565b80840191505092915050565b60006158c7828461588a565b915081905092915050565b60008190508160005260206000209050919050565b60006020601f8301049050919050565b600082821b905092915050565b6000600883026159347fffffffffffffffffffffffffffffffffffffffffffffffffffffffffffffffff826158f7565b61593e86836158f7565b95508019841693508086168417925050509392505050565b6000819050919050565b600061597b615976615971846148df565b615956565b6148df565b9050919050565b6000819050919050565b61599583615960565b6159a96159a182615982565b848454615904565b825550505050565b600090565b6159be6159b1565b6159c981848461598c565b505050565b5b818110156159ed576159e26000826159b6565b6001810190506159cf565b5050565b601f821115615a3257615a03816158d2565b615a0c846158e7565b81016020851015615a1b578190505b615a2f615a27856158e7565b8301826159ce565b50505b505050565b600082821c905092915050565b6000615a5560001984600802615a37565b1980831691505092915050565b6000615a6e8383615a44565b9150826002028217905092915050565b615a878261482d565b67ffffffffffffffff811115615aa057615a9f614a91565b5b615aaa825461584e565b615ab58282856159f1565b600060209050601f831160018114615ae85760008415615ad6578287015190505b615ae08582615a62565b865550615b48565b601f198416615af6866158d2565b60005b82811015615b1e57848901518255600182019150602085019450602081019050615af9565b86831015615b3b5784890151615b37601f891682615a44565b8355505b6001600288020188555050505b505050505050565b7f4e487b7100000000000000000000000000000000000000000000000000000000600052603260045260246000fd5b7f4e487b7100000000000000000000000000000000000000000000000000000000600052601160045260246000fd5b6000615bb9826148df565b9150615bc4836148df565b9250828201905080821115615bdc57615bdb615b7f565b5b92915050565b6000615bed826148df565b91507fffffffffffffffffffffffffffffffffffffffffffffffffffffffffffffffff8203615c1f57615c1e615b7f565b5b600182019050919050565b7f6c6f720000000000000000000000000000000000000000000000000000000000600082015250565b6000615c6060038361587f565b9150615c6b82615c2a565b600382019050919050565b6000615c8182615c53565b9150819050919050565b7f6772616465736865657400000000000000000000000000000000000000000000600082015250565b6000615cc1600a8361587f565b9150615ccc82615c8b565b600a82019050919050565b6000615ce282615cb4565b9150819050919050565b7f6465677265650000000000000000000000000000000000000000000000000000600082015250565b6000615d2260068361587f565b9150615d2d82615cec565b600682019050919050565b6000615d4382615d15565b9150819050919050565b7f6964636172640000000000000000000000000000000000000000000000000000600082015250565b6000615d8360068361587f565b9150615d8e82615d4d565b600682019050919050565b6000615da482615d76565b9150819050919050565b60008154615dbb8161584e565b615dc5818661587f565b94506001821660008114615de05760018114615df557615e28565b60ff1983168652811515820286019350615e28565b615dfe856158d2565b60005b83811015615e2057815481890152600182019150602081019050615e01565b838801955050505b50505092915050565b6000615e3d8284615dae565b915081905092915050565b600081519050919050565b600082825260208201905092915050565b6000615e6f82615e48565b615e798185615e53565b9350615e89818560208601614849565b615e9281614873565b840191505092915050565b6000608082019050615eb26000830187614974565b615ebf6020830186614974565b615ecc6040830185614a0a565b8181036060830152615ede8184615e64565b905095945050505050565b600081519050615ef88161479e565b92915050565b600060208284031215615f1457615f13614768565b5b6000615f2284828501615ee9565b91505092915050565b6000615f37828561588a565b9150615f43828461588a565b91508190509392505050565b6000604082019050615f646000830185614974565b615f716020830184614a0a565b9392505050565b7f4e487b7100000000000000000000000000000000000000000000000000000000600052601260045260246000fdfea264697066735822122063c9bb32c59efcb90bdeee63848b543bdabdbe552f32c308cc9e4abbfa0a07f364736f6c63430008140033",
  "linkReferences": {},
  "deployedLinkReferences": {}
}